:020000040800F2
:1000000000000220DDE400084D1900085B1900081B
:1000100061190008671900086D1900080000000048
:10002000000000000000000000000000915E0108D8
:100030007319000800000000E1600108496101082F
:100040002DE500082DE500082DE500082DE5000848
:100050002DE500082DE500082DE500082DE5000838
:10006000811900082DE500082DE500082DE50008A0
:100070002DE500082DE500082DE500082DE5000818
:100080002DE500082DE500082DE50008BD19000844
:10009000D1190008E5190008F91900082DE5000834
:1000A0002DE500080D1A00082DE50008211A0008AA
:1000B000351A00082DE500082DE500082DE500089B
:1000C0002DE500082DE500082DE500082DE50008C8
:1000D0002DE50008491A00082DE500082DE5000867
:1000E0002DE500082DE500082DE500082DE50008A8
:1000F0005D1A00082DE500082DE500082DE5000833
:100100002DE500082DE50008791A00082DE5000806
:100110002DE500082DE500082DE500082DE5000877
:100120002DE500082DE500088D1A00082DE50008D2
:100130002DE5000800000000000000002DE500088B
:100140002DE500082DE500082DE500082DE5000847
:100150002DE500082DE50008A11A00082DE500088E
:100160002DE500082DE500082DE500082DE5000827
:100170002DE500082DE5000800000000000000004B
:080180002DE500082DE5000843
:1001900010B5054C237833B9044B13B10448AFF3C1
:1001A00000800123237010BD200600200000000005
:1001B0009881010808B5034B1BB103490348AFF30D
:1001C000008008BD0000000024060020988101087E
:1001D000034613F8012B002AFBD1181A0138704787
:1001E00001F0FF01102A2BDB10F0070F08D010F8E8
:1001F000013B013A8B422DD010F0070F42B3F6D1EC
:10020000F0B441EA012141EA014122F007047FF004
:1002100000070023F0E80256083C85EA010586EA5B
:10022000010685FA47F5A3FA87F586FA47F6A5FA97
:1002300087F68EB9EED1F0BC01F0FF0102F00702A3
:1002400032B110F8013B013A83EA010313B1F8D14E
:100250000020704701387047002D06BF354603382F
:10026000073815F0010F07D1013015F4807F02BF68
:10027000013015F4C03F0130F0BC0138704700BFB9
:1002800081F0004102E000BF83F0004330B54FEA47
:1002900041044FEA430594EA050F08BF90EA020FB4
:1002A0001FBF54EA000C55EA020C7FEA645C7FEA47
:1002B000655C00F0E2804FEA5454D4EB5555B8BF6A
:1002C0006D420CDD2C4480EA020281EA030382EADB
:1002D000000083EA010180EA020281EA0303362D6D
:1002E00088BF30BD11F0004F4FEA01314FF4801C40
:1002F0004CEA113102D0404261EB410113F0004F52
:100300004FEA03334CEA133302D0524263EB430308
:1003100094EA050F00F0A780A4F10104D5F1200EA6
:100320000DDB02FA0EFC22FA05F2801841F1000101
:1003300003FA0EF2801843FA05F359410EE0A5F1D5
:1003400020050EF1200E012A03FA0EFC28BF4CF006
:10035000020C43FA05F3C01851EBE37101F00045BC
:1003600007D54FF0000EDCF1000C7EEB00006EEBC9
:100370000101B1F5801F1BD3B1F5001F0CD3490853
:100380005FEA30004FEA3C0C04F101044FEA4452AA
:1003900012F5800F80F09A80BCF1004F08BF5FEA31
:1003A000500C50F1000041EB045141EA050130BD11
:1003B0005FEA4C0C404141EB0101013C28BFB1F523
:1003C000801FE9D291F0000F04BF01460020B1FA6E
:1003D00081F308BF2033A3F10B03B3F120020CDA41
:1003E0000C3208DD02F1140CC2F10C0201FA0CF01F
:1003F00021FA02F10CE002F11402D8BFC2F1200C84
:1004000001FA02F120FA0CFCDCBF41EA0C01904039
:10041000E41AA2BF01EB0451294330BD6FEA040482
:100420001F3C1CDA0C340EDC04F11404C4F120026D
:1004300020FA04F001FA02F340EA030021FA04F37F
:1004400045EA030130BDC4F10C04C4F1200220FAD6
:1004500002F001FA04F340EA0300294630BD21FA14
:1004600004F0294630BD94F0000F83F4801306BFDA
:1004700081F480110134013D4EE77FEA645C18BFCE
:100480007FEA655C29D094EA050F08BF90EA020F65
:1004900005D054EA000C04BF1946104630BD91EA5D
:1004A000030F1EBF0021002030BD5FEA545C05D160
:1004B0004000494128BF41F0004130BD14F580049F
:1004C0003CBF01F5801130BD01F0004545F0FE4113
:1004D00041F470014FF0000030BD7FEA645C1ABF48
:1004E000194610467FEA655C1CBF0B46024650EA7F
:1004F000013406BF52EA033591EA030F41F40021AB
:1005000030BD00BF90F0000F04BF0021704730B530
:100510004FF4806404F132044FF000054FF0000105
:1005200050E700BF90F0000F04BF0021704730B5C6
:100530004FF4806404F1320410F0004548BF40429B
:100540004FF000013EE700BF42004FEAE2014FEAF0
:1005500031014FEA02701FBF12F07F4393F07F4FCB
:1005600081F06051704732F07F4208BF704793F0CE
:100570007F4F04BF41F40021704730B54FF46074E1
:1005800001F0004521F000411CE700BF50EA0102E4
:1005900008BF704730B54FF000050AE050EA01028D
:1005A00008BF704730B511F0004502D5404261EBFD
:1005B00041014FF4806404F132045FEA915C3FF43E
:1005C000D8AE4FF003025FEADC0C18BF03325FEADB
:1005D000DC0C18BF033202EBDC02C2F1200300FA8C
:1005E00003FC20FA02F001FA03FE40EA0E0021FAB1
:1005F00002F11444BDE600BF70B54FF0FF0C4CF49F
:10060000E06C1CEA11541DBF1CEA135594EA0C0F50
:1006100095EA0C0F00F0DEF82C4481EA030621EA8B
:100620004C5123EA4C5350EA013518BF52EA0335C6
:1006300041F4801143F4801338D0A0FB02CE4FF078
:100640000005E1FB02E506F00042E0FB03E54FF0A8
:100650000006E1FB03569CF0000F18BF4EF0010EA0
:10066000A4F1FF04B6F5007F64F5407404D25FEA9C
:100670004E0E6D4146EB060642EAC62141EA55514F
:100680004FEAC52040EA5E504FEACE2EB4F1FD0C91
:1006900088BFBCF5E06F1ED8BEF1004F08BF5FEA0F
:1006A000500E50F1000041EB045170BD06F00046C1
:1006B00046EA010140EA020081EA0301B4EB5C046E
:1006C000C2BFD4EB0C0541EA045170BD41F4801166
:1006D0004FF0000E013C00F3AB8014F1360FDEBF8B
:1006E000002001F0004170BDC4F10004203C35DA67
:1006F0000C341BDC04F11404C4F1200500FA05F3EA
:1007000020FA04F001FA05F240EA020001F000428A
:1007100021F0004110EBD37021FA04F642EB060100
:100720005EEA430E08BF20EAD37070BDC4F10C042A
:10073000C4F1200500FA04F320FA05F001FA04F2EE
:1007400040EA020001F0004110EBD37041F10001DA
:100750005EEA430E08BF20EAD37070BDC4F12005E5
:1007600000FA05F24EEA020E20FA04F301FA05F24D
:1007700043EA020321FA04F001F0004121FA04F2F5
:1007800020EA020000EBD3705EEA430E08BF20EAC5
:10079000D37070BD94F0000F0FD101F000464000FF
:1007A00041EB010111F4801F08BF013CF7D041EA81
:1007B000060195F0000F18BF704703F00046520085
:1007C00043EB030313F4801F08BF013DF7D043EA56
:1007D0000603704794EA0C0F0CEA135518BF95EA0C
:1007E0000C0F0CD050EA410618BF52EA4306D1D193
:1007F00081EA030101F000414FF0000070BD50EAB2
:10080000410606BF1046194652EA430619D094EA3B
:100810000C0F02D150EA013613D195EA0C0F05D125
:1008200052EA03361CBF104619460AD181EA030179
:1008300001F0004141F0FE4141F470014FF0000031
:1008400070BD41F0FE4141F4780170BD70B54FF0CC
:10085000FF0C4CF4E06C1CEA11541DBF1CEA13554C
:1008600094EA0C0F95EA0C0F00F0A7F8A4EB05042E
:1008700081EA030E52EA03354FEA013100F0888025
:100880004FEA03334FF0805545EA131343EA1263EE
:100890004FEA022245EA111545EA10654FEA0026A3
:1008A0000EF000419D4208BF964244F1FD0404F55C
:1008B000407402D25B084FEA3202B61A65EB0305B8
:1008C0005B084FEA32024FF480104FF4002CB6EB75
:1008D000020E75EB030E22BFB61A754640EA0C00F5
:1008E0005B084FEA3202B6EB020E75EB030E22BF35
:1008F000B61A754640EA5C005B084FEA3202B6EB76
:10090000020E75EB030E22BFB61A754640EA9C0034
:100910005B084FEA3202B6EB020E75EB030E22BF04
:10092000B61A754640EADC0055EA060E18D04FEAC2
:10093000051545EA16754FEA06164FEAC30343EA62
:1009400052734FEAC2025FEA1C1CC0D111F4801F2F
:100950000BD141EA00014FF000004FF0004CB6E728
:1009600011F4801F04BF01430020B4F1FD0C88BFC7
:10097000BCF5E06F3FF6AFAEB5EB030C04BFB6EBD2
:10098000020C5FEA500C50F1000041EB045170BDC5
:100990000EF0004E4EEA113114EB5C04C2BFD4EBF2
:1009A0000C0541EA045170BD41F480114FF0000E76
:1009B000013C90E645EA060E8DE60CEA135594EAF2
:1009C0000C0F08BF95EA0C0F3FF43BAF94EA0C0FF5
:1009D0000AD150EA01347FF434AF95EA0C0F7FF46A
:1009E00025AF104619462CE795EA0C0F06D152EABE
:1009F00003353FF4FDAE1046194622E750EA4106A2
:100A000018BF52EA43067FF4C5AE50EA41047FF4B2
:100A10000DAF52EA43057FF4EBAE12E74FEA410215
:100A200012F5001215D211D56FF47873B3EB625240
:100A300012D94FEAC12343F0004343EA505311F067
:100A4000004F23FA02F018BF404270474FF00000F9
:100A5000704750EA013005D111F0004008BF6FF037
:100A6000004070474FF00000704700BF53B94AB9CB
:100A7000002908BF00281CBF4FF0FF314FF0FF30A6
:100A800000F074B9ADF1080C6DE904CE00F006F881
:100A9000DDF804E0DDE9022304B070472DE9F047FA
:100AA000089D04468E46002B4DD18A42944669D952
:100AB000B2FA82F252B101FA02F3C2F1200120FA35
:100AC00001F10CFA02FC41EA030E94404FEA1C4883
:100AD000210CBEFBF8F61FFA8CF708FB16E341EA7F
:100AE000034306FB07F199420AD91CEB030306F105
:100AF000FF3080F01F81994240F21C81023E634426
:100B00005B1AA4B2B3FBF8F008FB103344EA0344C9
:100B100000FB07F7A7420AD91CEB040400F1FF33DE
:100B200080F00A81A74240F207816444023840EA1B
:100B30000640E41B00261DB1D4400023C5E9004354
:100B40003146BDE8F0878B4209D9002D00F0EF80D7
:100B50000026C5E9000130463146BDE8F087B3FA0A
:100B600083F6002E4AD18B4202D3824200F2F980F2
:100B7000841A61EB030301209E46002DE0D0C5E9F5
:100B8000004EDDE702B9FFDEB2FA82F2002A40F041
:100B90009280A1EB0C014FEA1C471FFA8CFE012644
:100BA000200CB1FBF7F307FB131140EA01410EFBE8
:100BB00003F0884208D91CEB010103F1FF3802D28F
:100BC000884200F2CB804346091AA4B2B1FBF7F089
:100BD00007FB101144EA01440EFB00FEA64508D9AC
:100BE0001CEB040400F1FF3102D2A64500F2BB80E9
:100BF0000846A4EB0E0440EA03409CE7C6F1200738
:100C0000B34022FA07FC4CEA030C20FA07F401FA7D
:100C100006F31C43F9404FEA1C4900FA06F3B1FB06
:100C2000F9F8200C1FFA8CFE09FB181140EA01416B
:100C300008FB0EF0884202FA06F20BD91CEB010108
:100C400008F1FF3A80F08880884240F28580A8F160
:100C500002086144091AA4B2B1FBF9F009FB1011B2
:100C600044EA014100FB0EFE8E4508D91CEB010150
:100C700000F1FF346CD28E456AD90238614440EAF3
:100C80000840A0FB0294A1EB0E01A142C846A64673
:100C900056D353D05DB1B3EB080261EB0E0101FAFC
:100CA00007F722FA06F3F1401F43C5E90071002659
:100CB0003146BDE8F087C2F12003D8400CFA02FCAF
:100CC00021FA03F3914001434FEA1C471FFA8CFEBF
:100CD000B3FBF7F007FB10360B0C43EA064300FBAF
:100CE0000EF69E4204FA02F408D91CEB030300F14D
:100CF000FF382FD29E422DD9023863449B1B89B204
:100D0000B3FBF7F607FB163341EA034106FB0EF38C
:100D10008B4208D91CEB010106F1FF3816D28B4239
:100D200014D9023E6144C91A46EA004638E72E4605
:100D3000284605E70646E3E61846F8E64B45A9D2FD
:100D4000B9EB020864EB0C0E0138A3E74646EAE76C
:100D5000204694E74046D1E7D0467BE7023B61441A
:100D600032E7304609E76444023842E7704700BF83
:100D700080B500AF174B184A1A60164B0E225A6006
:100D8000144B00229A60134B0022DA60114B4FF48F
:100D900010221A610F4B00225A610E4B00221A7664
:100DA0000C4B00225A760B4B00229A76094B0022FC
:100DB000DA76084B00221A77064B00225A7705484C
:100DC0000DF01CFC0346002B01D000F029FC00BFF5
:100DD00080BD00BF3C0600200064004080B58AB0A2
:100DE00000AF786007F1140300221A605A609A601D
:100DF000DA601A617B681B68294A93424CD1002350
:100E00003B61284B1B6C274A43F000731364254B4E
:100E10001B6C03F000733B613B690023FB60214BBB
:100E20001B6B204A43F0020313631E4B1B6B03F042
:100E30000203FB60FB684FF440737B610223BB61DC
:100E40000023FB6103233B6209237B6207F1140348
:100E5000194615480EF0AAFF00220C2113200EF0AF
:100E6000DBFB13200EF0F4FB00220C2114200EF00B
:100E7000D3FB14200EF0ECFB00220C2115200EF009
:100E8000CBFB15200EF0E4FB00220C2116200EF007
:100E9000C3FB16200EF0DCFB00BF2837BD4680BD2B
:100EA00000640040003802400004024080B582B077
:100EB00000AF78607B681B680E4A934216D10E4BD8
:100EC0001B6C0D4A23F0007313644FF440710B4800
:100ED0000FF008F913200EF0C9FB14200EF0C6FB2A
:100EE00015200EF0C3FB16200EF0C0FB00BF083724
:100EF000BD4680BD0064004000380240000402404E
:100F000080B582B000AF00237B60104B1B6B0F4A93
:100F100043F4800313630D4B1B6B03F480037B606E
:100F20007B68002200213A200EF076FB3A200EF07A
:100F30008FFB0022002146200EF06EFB46200EF0B3
:100F400087FB00BF0837BD4680BD00BF00380240A8
:100F500080B500AF0CF0F0FF01220121032008F062
:100F6000B3FB00221421642012F02EFD0346184A20
:100F70001360174B1B68184609F08AFA154A0021BE
:100F8000154812F085FA0346144A1360144A0021EA
:100F9000144812F07DFA0346134A1360134A0021E5
:100FA000134812F075FA0346124A1360124A0021E0
:100FB000124812F06DFA0346114A1360114A0021DB
:100FC000114812F065FA0346104A136000BF80BD55
:100FD000EC060020C084010811100008F006002073
:100FE000E484010821100008F406002008850108A7
:100FF000A5100008F80600202C85010871110008D2
:10100000FC06002050850108A911000800070020F7
:1010100080B582B000AF7860042012F0DFFAFBE701
:1010200080B584B000AF78600023FB60FB680133BB
:10103000FB60FB6840F2E73293428CBF0123002340
:10104000DBB2002B01D00023FB603223BB60124BCC
:101050001B68002B07D0114B1B681B689B69002B7A
:1010600001D0012300E00023002B01D00A23BB6044
:10107000FB68BA68B3FBF2F2B96801FB02F29B1A93
:10108000002B04D14FF4005105480FF058F91420FB
:1010900012F0A4FACAE700BF64060020DC0A0020B0
:1010A0000008024080B584B000AF786008F074FB9F
:1010B0000023FB810023BB81294808F066FC03461E
:1010C000BB81BB89002B09D0012012F087FAFB8974
:1010D0000133FB81FB890E2B01D8EDE700BFBB89F3
:1010E000002B38D11E4B1B889BB219461D4815F0AA
:1010F000F3FF1B4B1B889BB2184608F057FC184B9C
:101100001B889BB23B81164B1B889BB2184608F08C
:1011100097FC134B1B889BB2134AD2ED007AB0EEBA
:10112000670A184608F0F6FD0346104A136007F1F7
:101130000803184608F029FC03467B817B89002BB5
:1011400005D13B89002B02D03A89054B1A80022039
:1011500012F044FAD7E700BF1037BD4680BD00BF8C
:10116000E8060020E481010804000020E4060020D5
:1011700080B584B000AF786009480CF005FF08F036
:1011800021FF084808F036FF09F042F90423FB600C
:10119000F86809F049F9F86812F020FAF8E700BF9A
:1011A0003C0900206806002080B586B000AF78605A
:1011B00007F090FC0346002B0CBF01230023DBB299
:1011C000002B0BD0264B1B781946264807F0A0FCB5
:1011D0000346FB75FB7D002B0AD003E0224816F086
:1011E00001F83AE0FB7D1946204815F075FF34E020
:1011F0004FF47A633B611E4B01221A601D4B1B6842
:101200001B689B7CDBB2002B14BF01230023DBB2E5
:10121000002B1ED0174B1B6807F1080239691846CE
:1012200007F020F9134B1B6807F1080239691846CB
:1012300007F07CF90346FB733B699BB2FA7B1146CE
:10124000184607F08FFD0B4B1B681B68184608F00B
:101250009BF8042012F0C2F9D0E71837BD4680BDD4
:10126000000000203C060020FC81010814820108D7
:1012700064060020DC0A002080B584B002AF7860EC
:1012800039607B68012B11D13B684FF6FF729342A6
:101290000CD14FF0FF330193002300930023002271
:1012A0009FED040A002104480CF06EFA00BF0837D5
:1012B000BD4680BD9A99993D6806002080B500AF73
:1012C0004FF6FF710120FFF7D7FF80BD80B58AB0D0
:1012D00000AF07F1140300221A605A609A60DA60C6
:1012E0001A6100233B616E4B1B6B6D4A43F0040394
:1012F00013636B4B1B6B03F004033B613B690023DF
:10130000FB60674B1B6B664A43F080031363644BBF
:101310001B6B03F08003FB60FB680023BB60604B2A
:101320001B6B5F4A43F0010313635D4B1B6B03F0C0
:101330000103BB60BB6800237B60594B1B6B584AA1
:1013400043F002031363564B1B6B03F002037B60F5
:101350007B6800233B60524B1B6B514A43F00803F0
:1013600013634F4B1B6B03F008033B603B68002289
:1013700042F271314B480EF0C9FF002241F20201E6
:1013800049480EF0C3FF00224FF4004147480EF0D9
:10139000BDFF42F270337B610123BB610023FB611F
:1013A00000233B6207F1140319463E480EF0FEFC91
:1013B00001237B610123BB610123FB6102233B62AB
:1013C00007F11403194637480EF0F0FC02237B6145
:1013D0000123BB610023FB6102233B6207F114037D
:1013E000194631480EF0E2FC4FF400437B610123C3
:1013F000BB610023FB6100233B6207F11403194624
:101400002A480EF0D3FC4FF400637B610023BB61DC
:101410000023FB6107F11403194623480EF0C6FCB4
:101420004FF480537B610123BB610023FB610023E8
:101430003B6207F1140319461B480EF0B7FC042366
:101440007B611B4B1B68BB610023FB6107F114032D
:10145000194618480EF0AAFC10237B61164BBB619D
:101460000023FB6107F11403194610480EF09EFC9F
:10147000C0237B610023BB610023FB6107F11403E0
:1014800019460A480EF092FC0022062108200EF0B0
:10149000C3F808200EF0DCF800BF2837BD4680BD39
:1014A00000380240000802400000024000040240F0
:1014B00008000020000C02400000111080B500AFB1
:1014C00015F0D4FA0DF034F800F024F8FFF7FEFE22
:1014D000FFF716FDFFF74CFC00F0E0F800F036FBDC
:1014E00000F0B8FB00F00CFC00F05AFE00F0A0F891
:1014F00000F05CFC00F0DCFC054B01221A700AF0E5
:1015000027FB11F05BFFFFF723FD11F08BFFFEE7D8
:101510000407002080B594B000AF07F1200330220B
:101520000021184615F0DAFC07F10C0300221A60BE
:101530005A609A60DA601A610023BB60284B1B6C0A
:10154000274A43F080531364254B1B6C03F08053F0
:10155000BB60BB6800237B60224B1B68214A43F4BD
:10156000804313601F4B1B6803F480437B607B68E0
:1015700001233B624FF480337B620223BB634FF451
:101580008003FB630F233B64C0237B640223BB64A3
:101590000423FB6407F1200318460EF00FFF0346F7
:1015A000002B01D000F03CF80F23FB6002233B61CD
:1015B00000237B614FF4A053BB614FF48053FB6168
:1015C00007F10C03052118460FF066F90346002BBE
:1015D00001D000F025F800BF5037BD4680BD00BFE8
:1015E000003802400070004080B582B000AF7860E3
:1015F0007B681B68084A934201D10CF0BBFF7B68F3
:101600001B68064A934202D1042009F019FA00BF70
:101610000837BD4680BD00BF001C0040000C0040E4
:1016200080B400AF00BFBD465DF8047B704700008A
:1016300080B500AF174B184A1A60164B4FF48272F0
:101640005A60144B00229A60124B0022DA60114B50
:1016500000221A610F4B00225A610E4B4FF40072A8
:101660009A610C4B2822DA610A4B00221A62094B5C
:1016700000225A62074B00229A62064B0A22DA6263
:1016800004480FF01BFB0346002B01D0FFF7C8FFF7
:1016900000BF80BD080700200038004080B500AFC3
:1016A000184B194A1A60174B4FF482725A60154B47
:1016B00000229A60134B4FF40062DA60114B002253
:1016C0001A61104B01225A610E4B4FF400729A615D
:1016D0000C4B2822DA610B4B00221A62094B0022C4
:1016E0005A62084B00229A62064B0A22DA620548C7
:1016F0000FF0E4FA0346002B01D0FFF791FF00BF83
:1017000080BD00BF60070020003C004080B58CB069
:1017100000AF786007F11C0300221A605A609A60DB
:10172000DA601A617B681B68424A93424BD10023FE
:10173000BB61414B1B6C404A43F4804313643E4BF6
:101740001B6C03F48043BB61BB6900237B613A4B94
:101750001B6B394A43F004031363374B1B6B03F0D5
:1017600004037B617B6900233B61334B1B6B324A73
:1017700043F002031363304B1B6B03F002033B6126
:101780003B690C23FB6102233B6200237B62032342
:10179000BB620523FB6207F11C03194627480EF0C4
:1017A00005FB4FF48063FB6102233B6200237B62F5
:1017B0000323BB620523FB6207F11C031946204883
:1017C0000EF0F4FA31E07B681B681E4A93422CD17C
:1017D0000023FB60184B1B6C174A43F4004313644F
:1017E000154B1B6C03F40043FB60FB680023BB60DC
:1017F000114B1B6B104A43F0040313630E4B1B6B1E
:1018000003F00403BB60BB684FF4E053FB610223A9
:101810003B6200237B620323BB620623FB6207F16A
:101820001C03194605480EF0C1FA00BF3037BD460B
:1018300080BD00BF00380040003802400008024070
:1018400000040240003C004080B483B000AF00239D
:101850007B60104B5B6C0F4A43F4804353640D4B29
:101860005B6C03F480437B607B6800233B60094B27
:101870001B6C084A43F080531364064B1B6C03F047
:1018800080533B603B6800BF0C37BD465DF8047B6E
:10189000704700BF0038024080B58CB000AF786060
:1018A0000023FB620023BB62002279682C200DF02C
:1018B000B3FE2C200DF0CCFE0023FB601F4B1B6CF5
:1018C0001E4A43F0800313641C4B1B6C03F080031F
:1018D000FB60FB6807F1100207F11403114618467C
:1018E0000FF0BAF90FF090F903465B00FB62FB6A58
:1018F000134AA2FB03239B0C013BBB62114B124A10
:101900001A60104B40F2E732DA600E4ABB6A53604D
:101910000C4B00221A610B4B00229A6009480FF011
:101920007FFC0346002B04D106480FF0AEFC0346B3
:1019300000E0012318463037BD4680BD0038024024
:1019400083DE1B43B8070020001C004080B400AFBA
:1019500000BFBD465DF8047B704780B400AFFEE772
:1019600080B400AFFEE780B400AFFEE780B400AF04
:10197000FEE780B400AF00BFBD465DF8047B704752
:1019800080B500AF04200EF0F5FC042108480EF0ED
:10199000A5FC03461A46074B1B789A4206D1064B14
:1019A0001B78012B02D1042006F002F900BF80BD94
:1019B000000C0240E00600200407002080B500AFC4
:1019C00002480DF01BFB00BF80BD00BF3C0600209D
:1019D00080B500AF02480DF011FB00BF80BD00BF15
:1019E0003C06002080B500AF02480DF007FB00BFA9
:1019F00080BD00BF3C06002080B500AF02480DF05E
:101A0000FDFA00BF80BD00BF3C06002080B500AFDE
:101A100002480FF011FE00BF80BD00BFFC07002090
:101A200080B500AF02480FF007FE00BF80BD00BFC9
:101A3000FC07002080B500AF02480FF0FDFD00BF9D
:101A400080BD00BF3C08002080B500AF024810F008
:101A5000D1FC00BF80BD00BF3C09002080B500AFB5
:101A600003480FF0E9FD03480FF0E6FD00BF80BD1D
:101A7000BC080020B807002080B500AF02480FF076
:101A8000DBFD00BF80BD00BF7C08002080B500AF3B
:101A900002480DF021FF00BF80BD00BF7C0900207F
:101AA00080B500AF02480DF017FF00BF80BD00BF3A
:101AB000DC09002080B586B000AF7860144A154B71
:101AC000D31A7B617B693B61134B1B68002B02D1EE
:101AD000114B124A1A60104B1A687B6813443A691A
:101AE0009A4207D215F0C0F803460C221A604FF054
:101AF000FF3309E0084B1B68FB60074B1A687B68E3
:101B00001344054A1360FB6818461837BD4680BD6C
:101B10000000022000040000F8070020186F0020D9
:101B200080B400AF084BD3F88830074A43F4700301
:101B3000C2F88830044B4FF000629A6000BFBD4687
:101B40005DF8047B704700BF00ED00E080B592B007
:101B500000AF07F1400300221A605A6007F1240326
:101B600000221A605A609A60DA601A615A619A61BA
:101B70003B1D20220021184615F0B0F9334B344AA2
:101B80001A60324B4F225A60304B00229A602F4B22
:101B900040F2F312DA602D4B00221A612B4B002227
:101BA0005A612A4B00229A6128480FF0BDFB034678
:101BB000002B01D0FFF734FD20233B6400237B641E
:101BC00007F140031946214810F0F8F90346002BAD
:101BD00001D0FFF725FD60237B62FA23BB6200235F
:101BE000FB6200233B6300237B630023BB63002372
:101BF000FB6307F124030022194614480FF084FE0A
:101C00000346002B01D0FFF70BFD00237B60002370
:101C1000BB600023FB6000233B6100237B614FF42A
:101C20000053BB6100233B623B1D1946074810F07F
:101C300041FA0346002B01D0FFF7F2FC034800F005
:101C400023FA00BF4837BD4680BD00BFFC07002017
:101C50000000014080B58AB000AF07F120030022E8
:101C60001A605A603B1D00221A605A609A60DA605E
:101C70001A615A619A61214B4FF080421A601F4BE2
:101C800040F2E7325A601D4B00229A601B4B40F233
:101C9000E732DA60194B00221A61184B00229A6170
:101CA00016480FF016FB0346002B01D0FFF7B8FCD7
:101CB00020233B6200237B6207F1200319460F4873
:101CC00010F07CF90346002B01D0FFF7A9FC00239C
:101CD0007B600023BB600023FB6000237B613B1D16
:101CE0000022194605480FF0AFFD0346002B01D036
:101CF000FFF796FC00BF2837BD4680BD3C0800209A
:101D000080B58AB000AF07F1200300221A605A6044
:101D10003B1D00221A605A609A60DA601A615A61AB
:101D20009A61204B204A1A601E4B4F225A601D4B6D
:101D300000229A601B4B40F69F72DA60194B00221A
:101D40001A61184B00229A6116480FF0C2FA034636
:101D5000002B01D0FFF764FC20233B6200237B6251
:101D600007F1200319460F4810F028F90346002B0D
:101D700001D0FFF755FC00237B600023BB600023EC
:101D8000FB6000237B613B1D0022194605480FF0D4
:101D90005BFD0346002B01D0FFF742FC00BF283754
:101DA000BD4680BD7C080020000C004080B592B08C
:101DB00000AF07F1400300221A605A6007F12403C4
:101DC00000221A605A609A60DA601A615A619A6158
:101DD0003B1D20220021184615F080F8324B334A73
:101DE0001A60314B01225A602F4B00229A602E4B11
:101DF0000622DA602C4B00221A612B4B00225A611A
:101E0000294B80229A6128480FF08EFA0346002B56
:101E100001D0FFF705FC20233B6400237B6407F11E
:101E200040031946204810F0C9F80346002B01D0A2
:101E3000FFF7F6FB60237B620323BB620023FB6298
:101E400000233B6300237B630023BB630023FB630E
:101E500007F124030422194613480FF055FD0346E9
:101E6000002B01D0FFF7DCFB00237B600023BB606D
:101E70000023FB6000233B6100237B614FF4005390
:101E8000BB6100233B623B1D1946074810F012F965
:101E90000346002B01D0FFF7C3FB034800F0F4F822
:101EA00000BF4837BD4680BDBC080020000401408B
:101EB00080B588B000AF3B1D00221A605A609A605E
:101EC000DA601A615A619A61194B1A4A1A60184B02
:101ED00006225A60164B00229A60154B0522DA60E2
:101EE000134B00221A61124B00229A6110480FF026
:101EF0001BFA0346002B01D0FFF792FB60237B60A7
:101F00000323BB600023FB6000237B613B1D002299
:101F1000194607480FF0F8FC0346002B01D0FFF7E5
:101F20007FFB034800F0B0F800BF2037BD4680BDFE
:101F3000FC0800200018004080B586B000AF786033
:101F40007B681B682A4A93421ED100237B61294B80
:101F50005B6C284A43F001035364264B5B6C03F02F
:101F600001037B617B690022002119200DF054FBE5
:101F700019200DF06DFB002200211B200DF04CFB01
:101F80001B200DF065FB2EE07B681B681A4A93420C
:101F900016D100233B61174B5B6C164A43F00203DA
:101FA0005364144B5B6C03F002033B613B690022FA
:101FB00000212C200DF030FB2C200DF049FB12E00D
:101FC0007B681B680D4A93420DD10023FB60094BCF
:101FD0001B6C084A43F040031364064B1B6C03F070
:101FE0004003FB60FB6800BF1837BD4680BD00BFE3
:101FF0000000014000380240000401400018004089
:1020000080B584B000AF78607B681B68B3F1804F07
:1020100016D10023FB601A4B1B6C194A43F00103D5
:102020001364174B1B6C03F00103FB60FB68002279
:1020300000211C200DF0F0FA1C200DF009FB1AE025
:102040007B681B680F4A934215D10023BB600C4B81
:102050001B6C0B4A43F008031364094B1B6C03F021
:102060000803BB60BB6800220A2132200DF0D4FABD
:1020700032200DF0EDFA00BF1037BD4680BD00BF25
:1020800000380240000C004080B58AB000AF786094
:1020900007F1140300221A605A609A60DA601A612C
:1020A0007B681B68374A93421FD100233B61364B44
:1020B0001B6B354A43F001031363334B1B6B03F077
:1020C00001033B613B694FF480737B610223BB6179
:1020D0000023FB6100233B6201237B6207F11403B1
:1020E00019462A480DF062FE47E07B681B68284AC3
:1020F00093421ED10023FB60234B1B6B224A43F00B
:1021000004031363204B1B6B03F00403FB60FB68A9
:1021100080237B610223BB610023FB6100233B62C0
:1021200003237B6207F1140319461A480DF03EFEA3
:1021300023E07B681B68184A93421ED10023BB60D2
:10214000114B1B6B104A43F0020313630E4B1B6BC6
:1021500003F00203BB60BB684FF480437B61022342
:10216000BB610023FB6100233B6209237B6207F113
:102170001403194609480DF019FE00BF2837BD4663
:1021800080BD00BF00000140003802400000024056
:102190000004014000080240001800400004024012
:1021A00080B500AF114B124A1A60104B4FF4E13268
:1021B0005A600E4B00229A600C4B0022DA600B4BE7
:1021C00000221A61094B0C225A61084B00229A61C5
:1021D000064B0022DA6105480FF0D2FF0346002BC0
:1021E00001D0FFF71DFA00BF80BD00BF3C090020F1
:1021F0000010014080B58AB000AF786007F1140389
:1022000000221A605A609A60DA601A617B681B6863
:102210004C4A934240F0928000233B614A4B5B6CF6
:10222000494A43F010035364474B5B6C03F01003BF
:102230003B613B690023FB60434B1B6B424A43F00D
:1022400001031363404B1B6B03F00103FB60FB684E
:102250004FF4C0637B610223BB610023FB61032356
:102260003B6207237B6207F11403194637480DF0E0
:102270009DFD374B374A1A60354B4FF000625A606C
:10228000334B00229A60324B0022DA60304B4FF41D
:1022900080621A612E4B00225A612D4B00229A61F6
:1022A0002B4B4FF48072DA61294B00221A62284BC3
:1022B00000225A6226480DF0E7F90346002B01D0B0
:1022C000FFF7AEF97B68224A5A63214A7B68936321
:1022D000214B224A1A60204B4FF000625A601E4B7D
:1022E00040229A601C4B0022DA601B4B4FF4806244
:1022F0001A61194B00225A61174B00229A61164B42
:102300000022DA61144B00221A62134B00225A6237
:1023100011480DF0B9F90346002B01D0FFF780F901
:102320007B680D4A1A630C4A7B689363002205217F
:1023300025200DF071F925200DF08AF900BF28370E
:10234000BD4680BD00100140003802400000024040
:102350007C09002040640240DC090020B86402408F
:1023600080B485B000AF78607B681B68FB60FB6859
:1023700018461437BD465DF8047B704780B483B0BF
:1023800000AF786039603A687B681A6000BF0C372C
:10239000BD465DF8047B7047B0B58AB002AF786087
:1023A00039607B68FB61FB69002B22D0FB691B6FE6
:1023B000002B1ED03B68DB697B837B8B802B18D086
:1023C0003B6821337B617B691B889BB27B827B6985
:1023D00004331B68FB60FB691C6F798A7B690233DD
:1023E0001A787B6903331D78FB68788B00932B4642
:1023F000A04700BF2037BD46B0BD000080B487B005
:1024000000AF786000237B617B681B683B617B6861
:102410005B681B78FB737B68DB7D002B16D03B6908
:102420005B7ABB737B689B7D002B04D17B685B6808
:10243000BA7B1A701AE07B689B7DBA7B9A4202D203
:102440000E4B7B6112E000237B610FE07B689B7D7C
:10245000002B09D1FB7B002B03D13B6900225A7270
:1024600004E0074B7B6101E0064B7B617B6918460A
:102470001C37BD465DF8047B704700BF2400000890
:10248000300009060200010680B586B000AF786012
:1024900000237B617B681B683B617B685B68184637
:1024A000FFF75EFFF8607B68DB7D002B0AD07B685E
:1024B0005A683B691B781946FB680B44194610465D
:1024C000FFF75CFF7B6918461837BD4680BD0000EA
:1024D00080B58AB004AFF860B9607A603B600023D1
:1024E000BB75FB68002B18D0BB68002B15D07B6830
:1024F000002B12D03B68002B0FD097F82030052B13
:102500000BD97B6A002B08D0BB6A002B05D0BB6BB4
:10251000002B02D03B6B002B02D14FF0FF338DE03C
:10252000FB683A681A60FB6897F820201A71FB680C
:10253000053303F15002FB689A65FB685A1DFB687E
:10254000DA65FB685A1DFB681A66FB68002283F88F
:102550006420FB68002283F86520FB6800229A66ED
:10256000FB680022DA66FB6800221A67BB68FA681B
:102570001A61BB687A6A1A60BB68BA6A5A60BB683B
:1025800097F82C201A72BB6800225A72BB6800228E
:10259000DA600023FB7508E0FB681A68FB7D1344D2
:1025A00000221A70FB7D0133FB75FA7D97F820300D
:1025B0009A42F1D30023019300230093BB68214A80
:1025C00041F20301786802F0DDFD7B6803F5E96301
:1025D00000220192002200921B4A41F21401786805
:1025E00002F0D0FDB98E194B0293FB6801930023D2
:1025F00000934FF4F0638022386B06F085FD0346AC
:10260000BB75BB68BA6B5A61BB685B69FA68DA6113
:10261000B7F84020B98F00230193082300930023CB
:10262000B86B06F0C7FD0246BB689A61BB689B6940
:10263000002B01D1FF23BB7597F9163018461837C8
:10264000BD4680BDFD2300088924000899230008A9
:1026500090B58FB002AFF8607A601A460B46FB72F5
:1026600013463B81FB681B69BB623B89642202FB0A
:1026700003F37B62FB685B69184606F0F5FEBB6AF4
:1026800093F86530002B0CD0BB6A93F865304FF49B
:10269000C2422821B86A00F02CF9BB6A002283F8F4
:1026A0006520002387F82F306E2387F82330BB6A1C
:1026B0001B6805331B78002B05D097F82F3043F0AB
:1026C000010387F82F30BB6A1B6802331B78002B8D
:1026D00005D1BB6A1B6803331B78002B05D097F824
:1026E0002F3043F0100387F82F30062387F82E3061
:1026F00012E0BB6A1A6897F82E3013441B78002B3F
:1027000005D097F82F3063F07F0387F82F3097F8C4
:102710002E30013387F82E30BB6A1B7997F82E20B4
:102720009A42E6D3FB681B681A7897F82330134067
:10273000D9B2FB681B6897F82F200A43D2B21A70EF
:10274000FB68DB687A6A9A4205D9FB68DA687B68BD
:102750001A44FB68DA60FB7A002B00F0C680FB6845
:102760009B695B7BDBB2002B40F0BF80BB6A1A6EBB
:10277000BB6ADB6D9A4205D1BB6A93F86430002BCB
:1027800000F0B380FB68DB687A6A9A4200F29C80B2
:10279000FB681A68BB6A1B6E023312781A70BB6A38
:1027A0001B6F002B19D0BB6A1B6E1B889BB2FB8270
:1027B000BB6A1B6E04331B683B61BB6A1C6FF98AE2
:1027C000BB6A1B6E02331A78BB6A1B6E0333187820
:1027D0003B69009303460020A047FB689B69581D96
:1027E000BB6A1B6E0822194614F06AFBBB6A1B6E9B
:1027F0001B68BB61BB6A1B6E03F10802BB6A1A66E9
:10280000BB6A1A6EBB6A9B6D9A4203D1BB6A5A1DA2
:10281000BB6A1A66FB680022DA60BB6A93F8643010
:10282000022B0BD1BB6A002283F8642000234FF4F3
:1028300080522021B86A00F05CF808E0BB6A0022F0
:1028400083F8642000222021B86A00F0D8F8FB68E1
:102850005B68002B2FD0FB685A7AFB681B7A9A4280
:1028600005D2FB685B7A0133DAB2FB685A72FB6807
:102870005B7A013B87F82D3015E0FB685A6897F8C2
:102880002D3003F18043013B9B001A44FB685968DB
:1028900097F82D309B000B4412681A6097F82D3082
:1028A000013B87F82D3097F82D30002BE5D1FB68E0
:1028B0005B68BA691A60FB685A69FB689B691946CC
:1028C000104606F0B7FC10E03B6C002B0DD0FB6807
:1028D000DB687A6AD31AFB613B6C1B68FA699A421F
:1028E00003D23B6CFA691A6000BF00BF3437BD46A3
:1028F00090BD80B588B000AFF8607B600B46FB727E
:1029000013463B81FB7ADB08BB76FB7A03F00703B7
:10291000012202FA03F37B760023FB610123FB769D
:10292000FB68002B02D10023FB7619E0FB681B79C2
:10293000BA7E9A4206D3FB68FA7A83F865200023B0
:10294000FB760DE0FB681A68BB7E1344FB61FB69F4
:102950001A787B7E1340DBB2002B01D00023FB767C
:10296000FB7E002B47D0FB7A002B06D0FB691A7840
:102970007B7E1343DAB2FB691A70FB6893F864300C
:10298000002B04D0FB68022283F8642033E03B89EB
:102990003B820023BB74FB7AFB747B687B61FB6822
:1029A000DB6D1A4607F1100303CB10605160FB6822
:1029B000DB6D03F10802FB68DA65FB68DA6DFB6822
:1029C0009B6D9A4203D1FB685A1DFB68DA65FB6870
:1029D000DA6DFB681B6E9A4203D1FB68012283F813
:1029E0006420FB689B6E002B05D0FB689B6EFA6829
:1029F000D26E1046984700BF2037BD4680BD80B5D7
:102A000088B000AFF8600B467A60FB72FB7ADB0897
:102A1000BB76FB7A03F00703012202FA03F37B760D
:102A20000023FB610123FB76FB68002B02D100230E
:102A3000FB7619E0FB681B79BA7E9A4206D3FB68E5
:102A4000FA7A83F865200023FB760DE0FB681A68AC
:102A5000BB7E1344FB61FB691A787B7E1340DBB2BB
:102A6000002B01D10023FB76FB7E002B4BD0FB69B2
:102A70001B785AB297F91930DB435BB213405BB253
:102A8000DAB2FB691A70FB6893F86430002B04D04B
:102A9000FB68022283F8642035E000233B740023A6
:102AA0007B740023BB74FB7AFB747B687B61FB68DF
:102AB000DB6D1A4607F1100303CB10605160FB6811
:102AC000DB6D03F10802FB68DA65FB68DA6DFB6811
:102AD0009B6D9A4203D1FB685A1DFB68DA65FB685F
:102AE000DA6DFB681B6E9A4203D1FB68012283F802
:102AF0006420FB689B6E002B05D0FB689B6EFA6818
:102B0000D26E1046984700BF2037BD4680BD80B4C6
:102B100085B000AF78600B46FB70FB78DB08BB73B9
:102B2000FB7803F00703012202FA03F37B7300230F
:102B3000FB737B68002B10D07B681B79BA7B9A42B1
:102B40000BD27B681A68BB7B13441A787B7B1340DB
:102B5000DBB2002B01D00123FB73FB7B184614373B
:102B6000BD465DF8047B704780B485B000AF7860E7
:102B70007B681B68FB60FB6818461437BD465DF830
:102B8000047B704780B586B000AF786039603B68E1
:102B900093F82030FB753B6821333B617B68FB6019
:102BA000FB7D012B07D13B691B785AB2FB685A7039
:102BB000FB680122DA60FB681B69002B05D0FB680B
:102BC0001B69FA6852691046984700BF1837BD461E
:102BD00080BD000080B586B000AF78607B68DB7D8B
:102BE000002B01D0002326E07B681B687B617B689B
:102BF0005B681846FFF7B8FF38613B691B0CFB7335
:102C00003B69BB813B69DB0DDB05002B01D00C4B25
:102C100011E07B689B7D013BD9B2BB89FA7B786967
:102C200000F0A6F80346FB7297F90B30002B01D099
:102C3000034B00E0002318461837BD4680BD00BF97
:102C40004300040680B588B002AFF860B9607A60CE
:102C50003B600023BB75FB68002B0ED0BB68002BCC
:102C60000BD07B68002B08D03B68002B05D03B6A5B
:102C7000002B02D0BB6A002B02D14FF0FF3371E072
:102C8000FB68BA681A60FB683A685A60FB683A6A7F
:102C90009A60FB6897F824201A73FB6800225A7325
:102CA000FB68FF229A73FB680022DA73FB68BA6A3A
:102CB0001A61FB68BA8D9A82FB6800229A61002330
:102CC000FB753DE0FB685A68FB7D9B0013441B6865
:102CD0001B0C7B75FB685A68FB7D9B0013441B68CB
:102CE0007B827B8A7A7DF97DF86800F041F80346A3
:102CF000BB75FB689A68FB7D342101FB03F3134429
:102D000000221A61FB689A68FB7D342101FB03F302
:102D100013440022DA61FB689A68FB7D342101FBD1
:102D200003F3134400225A62FB689A68FB7D342146
:102D300001FB03F313440022DA62FB7D0133FB75D0
:102D4000FB681B7BFA7D9A42BCD3002301930023CE
:102D50000093FB68054A41F21601786802F012FA06
:102D600097F9163018461837BD4680BDD52B000898
:102D700090B58BB004AF7860084611461A460346FA
:102D8000FB700B46BB7013463B800023FB757B68D2
:102D9000002B04D07B681B7BFA789A4202D34FF059
:102DA000FF3384E03B88002B26D0BB78002B23D058
:102DB0000023BB751BE07B685A68BB7D9B001344F6
:102DC0001B683B613B691B0CFB733B69BB81FA7859
:102DD000BB7D9A4208D0BB89002B05D0BA78FB7B1B
:102DE0009A4201D1FF23FB75BB7D0133BB757B6824
:102DF0001B7BBA7D9A42DED397F91730002B54D152
:102E00007B689A68FB78342101FB03F31344BB60B1
:102E1000BB68BA781A703B884FF47A7202FB03F3EE
:102E20001A46BB689A60BB68FF225A70BB68FF22D3
:102E30001A76BB680022DA60BB681B78002B0DD0C5
:102E4000BB689B68002B09D0BB681B789BB203F55D
:102E5000E063BB82BB6801229A7007E00023BB825B
:102E6000BB6800229A60BB6800229A70BB689B789E
:102E7000002B1AD07B6818697B689A8AFB789BB212
:102E8000134499B27B689A68FB78342404FB03F3FB
:102E90001344BA8A084C029401930023009340F231
:102EA000FF7306F031F90346FB7597F917301846A2
:102EB0001C37BD4690BD00BF852B000880B487B08D
:102EC00000AFF8607A603B600B46FB72FB68002B3A
:102ED00013D0FB681B7BFA7A9A420ED2FB689A6881
:102EE000FB7A342101FB03F313447B617B693A686D
:102EF000DA617B697A681A6200E000BF1C37BD4660
:102F00005DF8047B704780B487B000AFF8607A60EA
:102F10003B600B46FB72FB68002B13D0FB681B7BEE
:102F2000FA7A9A420ED2FB689A68FB7A342101FB46
:102F300003F313447B617B693A685A627B697A6860
:102F40009A6200E000BF1C37BD465DF8047B704705
:102F500080B588B000AFF8607A603B600B46FB72CA
:102F60000123BB7705237B77FB689B68BB61FB7AFA
:102F7000002B00F0BA80FB68DB7B002B00F0B580F3
:102F80000023FB77AAE07B687B61BB699B78002B01
:102F900000F0A080BB69DB68002B3BD0BB6993F9D4
:102FA0000130002B1BD1BB69DB6A002B07D0BB694A
:102FB000DB6ABA691078BA69126BF97F9847BB6906
:102FC0009B78022B07D1FB681868FB7F48F2301210
:102FD0001C21FFF78EFCBB6901229A7017E0BB69C8
:102FE0009B78022B0BD0BB69DB69002B07D0BB6938
:102FF000DB69BA691078BA69126AF97F9847BB69C8
:1030000002229A70BB6900225A6000237B61BB696F
:103010000022DA60BB699B78022B2FD1BB695A680A
:103020007B691A44BB695A60BB695A68BB699B6873
:103030009A4212D3BB695B6A002B07D0BB695B6AFB
:10304000BA691078BA69926AF97F9847BB69FF221A
:103050005A70BB6903229A7010E03B68002B0DD0B8
:10306000BB699A68BB695B68D31A3B613B681B68A4
:103070003A699A4202D23B683A691A60BB699B7806
:10308000022B01D00023BB77BB6993F90130052BDC
:1030900001D0FF237B77BB6993F90120BB6993F9CA
:1030A00018309A4212D0FB689B69002B09D0FB684C
:1030B0009B69BA691078BA6992F90110FA68D26905
:1030C0009847BB6993F90120BB691A76BB69343311
:1030D000BB6100E000BFFB7F0133FB77FB681B7B1C
:1030E000FA7F9A42FFF44FAF28E0FB7A002B03D11E
:1030F000FB68DB7B002B21D00023FB7715E0BB694D
:10310000FF225A70BB69FF221A76BB690022DA607F
:10311000BB699B78002B02D0BB6901229A70BB6906
:103120003433BB61FB7F0133FB77FB681B7BFA7F8A
:103130009A42E4D30023BB77FF237B77FB685B7B5A
:10314000002B10D1BB7F002B0DD0FB681B68002229
:103150001B211846FFF753FCFB681B6800221C214B
:103160001846FFF74CFCFB68BA7F5A73FB687A7FFE
:103170009A73FB68FA7ADA7300BF2037BD4680BDC8
:1031800080B586B000AF786039603B6893F8203036
:10319000FB753B6821333B617B68FB603B695B7877
:1031A000FB72FB7D022B4DD1FB7A002B04D0FB6818
:1031B000DB7BFA7A9A4245D13B691B78BB72FB688C
:1031C0001B7B7B72BB7A822B24D0822B26DC812B4B
:1031D0001CD0812B22DC802B14D0802B1EDC012BF9
:1031E00002D0022B0AD019E0FB689B691B681B7890
:1031F000002B15D1FB6805221A7311E0FB6804222D
:103200001A730EE0FB687F221A730AE0FB68022241
:103210009A7306E0FB6801229A7302E000BF00E0A7
:1032200000BFFB685B6A002B0CD0FB6893F90C3085
:1032300097F909209A4205D0FB685B6AFA68926A9E
:103240001046984700BF1837BD4680BD80B58AB08C
:1032500004AFF860B96011461A460B46FB7113467D
:10326000BB80FB68002B08D0BB68002B05D03B6AF5
:10327000002B02D0BB6B002B02D14FF0FF3367E075
:103280000023FB75FB6800221A60FB6800221A719C
:10329000FB6800225A71FB6800229A71FB680022C9
:1032A000DA71FB6800221A72FB6800225A72FB680E
:1032B000FF229A72FB680122DA72FB6800221A73FD
:1032C000FB6800225A73FB68FA79DA73BB884FF403
:1032D0007A7202FB03F31A46FB685A61FB6800220C
:1032E0009A73FB6800221A61FB68BA689A61FB68EE
:1032F00000225A62FB6800229A62FB680022DA62AE
:103300003A8DB98C144B0293FB6801930023009310
:1033100040F2FF73386A05F0F7FE0346FB75FB6861
:10332000BA6BDA61B7F84020B98F0023019301230B
:1033300000930023B86B05F03DFF0246FB681A625C
:10334000FB681B6A002B01D1FF23FB7597F917302F
:1033500018461837BD4680BD8131000880B485B05D
:1033600000AFF860B9607A60FB68002B05D0FB689D
:103370007A685A62FB68BA689A6200BF1437BD4621
:103380005DF8047B704780B582B000AF786039602B
:103390007B68002B0DD07B683A68DA627B68DB6A59
:1033A000002B06D07B68DB6A7A6892F90C20104605
:1033B000984700BF0837BD4680BD80B588B000AFD4
:1033C000F860B9603B601346FB80FB681B7BBB77F2
:1033D000FB884FF47A7202FB03F3BB61FB681A6946
:1033E000BB681A44FB681A61FB6893F90C30002B28
:1033F0000FD0BB69002B38D0FB681B69BA699A42B1
:1034000007D9FB6893F90C20FB6893F90D309A42B9
:103410002BD0FB6800221A61FB6893F90C20FB6833
:103420001B6AD2B25A71FB68DA69FB681B6A1946DB
:10343000104605F0FFFEFB6893F90C30002B14D109
:10344000FB685B69BA699A4205D9FB685B69BA692E
:10345000D21AFB681A613B68082B03D1FB6805226E
:103460001A7302E0FB687F221A73FB6893F90C2041
:10347000FB685A730023FB77FB689B691B69072174
:103480001846FFF744FB0346002B09D1FB689B69F4
:103490001B6906211846FFF73AFB0346002B01D0B3
:1034A0000123FB77FB681A68BB681A44FB681A6043
:1034B000FB681B684CF24F32934240F2E680FB6897
:1034C0001B68A3F54343503BFA6813603B6B002B2A
:1034D0000DD0FB681B68C3F5434350337B613B6BE6
:1034E0001B687A699A4202D23B6B7A691A60FB6860
:1034F00093F90430DBB20133DBB25AB2FB681A71C4
:10350000FB6893F90430002B02DDFB68FF221A717F
:10351000FB6893F90530DBB20133DBB25AB2FB68CA
:103520005A71FB6893F90530032B02DDFB68FC221E
:103530005A71FB6893F90630DBB20133DBB25AB241
:10354000FB689A71FB6893F90630032B02DDFB6878
:10355000EC229A71FB6893F90730DBB20133DBB2DE
:103560005AB2FB68DA71FB6893F90730682B0ED00A
:10357000682B10DC13F1640F05D0042B0BD1FB6812
:103580009822DA7108E0FB686422DA7104E0FB68D3
:10359000EC22DA7100E000BFFB6893F90830DBB27F
:1035A0000133DBB25AB2FB681A72FB6893F9083038
:1035B000722B20D0722B22DC682B14D0682B1EDCDF
:1035C000042B08D0042B1ADC13F16E0F0FD013F16B
:1035D000640F04D013E0FB6898221A7210E0FB68B5
:1035E00064221A720CE0FB688E221A7208E0FB68F3
:1035F0006E221A7204E0FB68EC221A7200E000BF2F
:10360000FB6893F90930DBB20133DBB25AB2FB68D5
:103610005A72FB6893F909307C2B32D07C2B36DC54
:10362000722B26D0722B32DC682B1AD0682B2EDC42
:10363000042B0ED0042B2ADC13F1640F0DD013F1F0
:10364000640F24DC13F1780F17D013F16E0F0CD038
:103650001DE0FB6898225A721AE0FB6864225A72D5
:1036600016E0FB688E225A7212E0FB686E225A72D4
:103670000EE0FB6884225A720AE0FB6878225A72D4
:1036800006E0FB68EC225A7202E000BF00E000BFD7
:10369000FB6893F90C307F2B0CD07F2B14DC042BB0
:1036A00002D0052B0CD00FE0FB6893F90620FB68D5
:1036B0009A720AE0FB6893F90520FB689A7204E0AD
:1036C000FB6801229A7200E000BFFB689B691B69DE
:1036D00012211846FFF71BFA0346002B03D0FB68A4
:1036E0000122DA724FE0FB689B691B6918211846BA
:1036F000FFF70DFA0346002B05D0FB6893F908206D
:10370000FB68DA723FE0FB689B691B691B21184666
:10371000FFF7FDF90346002B09D1FB689B691B6984
:103720001C211846FFF7F3F90346002B05D0FB6870
:1037300093F90720FB68DA7225E0FB7F002B09D1A3
:10374000FB689B691B6901211846FFF7E0F90346F6
:10375000002B05D0FB6893F90620FB68DA7212E0B3
:1037600097F82830002B0BD0FB6893F90530002B1D
:1037700002DB4FF0FF3200E00122FB68DA7202E068
:10378000FB68FF22DA72FB6A002B00F0AE80FB6858
:1037900093F90C30052B40F0A880FB7F002B0FD055
:1037A000FB6A02331B78002B04D0FB6A02331B78C0
:1037B000022B05D197F8283043F0100387F8283002
:1037C00097F82830002B00F0908097F8283003F00D
:1037D0001003002B3ED0FB6A01331B78002B03D172
:1037E000FB687F221A7335E0FB6A01331B78022BDA
:1037F00003D1FB6804221A732CE0FB689B691B69E8
:1038000012211846FFF783F90346002B13D1FB68FA
:103810009B691B691B211846FFF779F90346002BAA
:1038200009D1FB689B691B691C211846FFF76FF9DA
:103830000346002B0ED0FB6A1B78002B03D1FB68DC
:103840007F221A7306E0FB6A1B78022B02D1FB6809
:1038500004221A7397F8283003F00103002B10D0CC
:10386000FB6A03331B78002B03D1FB687F221A739A
:1038700007E0FB6A03331B78022B02D1FB680422AA
:103880001A7397F8283003F02003002B10D0FB6A3E
:1038900004331B78002B03D1FB687F221A7307E0E7
:1038A000FB6A04331B78022B02D1FB6804221A73D3
:1038B00097F92830002B10DAFB6A05331B78002BB0
:1038C00003D1FB687F221A7307E0FB6A05331B787C
:1038D000022B02D1FB6804221A73FB6893F90C30A7
:1038E000052B02D0FB68BA691A61FB6893F90C30AA
:1038F00097F91E209A4210D0FB68DB6A002B06D095
:10390000FB68DB6AFA6892F90C20104698473B6B1B
:10391000002B02D03B6B00221A60BB69002B18D031
:103920003B6B002B15D0FB681B69BA699A420DD915
:10393000FB681B69BA69D31A3B613B6B1B683A6928
:103940009A4206D23B6B3A691A6002E03B6B002256
:103950001A60FB689B7B18462037BD4680BD80B44B
:1039600085B000AF78607B681B889BB2FB81FB89C8
:1039700018461437BD465DF8047B704780B485B0A7
:1039800000AF78607B681B68FB60FB6818461437E3
:10399000BD465DF8047B704780B483B000AF7860AB
:1039A00039603A687B681A6000BF0C37BD465DF825
:1039B000047B704780B586B000AF786039603B68A3
:1039C00093F82030FB753B6821333B617B68FB60DB
:1039D000FB685B7E002B38D0FB681B6993F90030D5
:1039E000052B32D1FB689B7EFA7D9A422DD3FB6872
:1039F000DB6B002B0BD0FB6893F84030002B06D01C
:103A0000FB68DB6B1B7F002B01D0012300E0002350
:103A1000BB60BB680933DB00FA6813440433082237
:103A20003969184613F04CFAFA68BB6810339B00EA
:103A3000134401225A60FB68DB6D002B05D0FB6844
:103A4000DB6DFA68126E1046984700BF1837BD4606
:103A500080BD000080B588B004AF786039603B68F5
:103A6000FB813A68294B1340002B21D17B689B7E58
:103A7000002B1DD0FB89002B1AD07B68DB8AFA89CA
:103A80009A4205D17B681B7D9AB2FB891344FB8166
:103A90007B6801225A767B689B681B7AF02B94BF67
:103AA00001230023DBB21A467B6883F840200AE03A
:103AB0000023FB817B6800225A767B6800225A64CF
:103AC0007B6800229A647B68586E7B68B3F8681044
:103AD000FA890F4B02937B6801930023009340F215
:103AE000FF7305F011FB03467B7397F90D30002B34
:103AF00008D07B6800225A767B6800225A647B6873
:103B000000229A6400BF1037BD4680BD00F8FFBF99
:103B1000B539000890B589B002AFF860B9601346B6
:103B2000FB71BB68FB82BA681D4B1340002B15D19B
:103B3000FB689B7E002B11D0FB8A002B0ED0FB680C
:103B4000DB8AFA8A9A4205D1FB681B7D9AB2FB8A0E
:103B50001344FB82FB6801225A7604E00023FB82B7
:103B6000FB6800225A76FB68D86CFB68B3F85410E7
:103B7000FB689B7EFC8AFA7901920093002322461F
:103B800005F018FB0246FB681A65FB681B6D002BED
:103B900002D1FB6800225A7600BF1C37BD4690BD9B
:103BA00000F8FFBF80B588B000AFF860B9603B6037
:103BB0001346FB71BB681B0C7B83BB681B0A7B76BF
:103BC000BB683B763B7E03F00703002B01D0664BBE
:103BD000C6E03B7EDB083B76BB6A1A783B7E13442B
:103BE000DAB2BB6A1A70BB6A1B78082B01D95F4B2B
:103BF000B6E07B8B072B2DD87B7E002B2AD10423AC
:103C0000FB777B8B012B02D80023FB7710E07B8BAB
:103C1000022B02D07B8B052B02D10123FB7707E01F
:103C20007B8B032B02D07B8B062B01D10223FB77EE
:103C3000FA7F3B7E9A4201D24B4B91E0FB79002BFD
:103C400003D13B684A4A1A6002E03B68494A1A605D
:103C5000002385E07B8B1946F86801F0EBFA0346F8
:103C6000FB82FB8A4FF6FF7293420CD0FB68D3F8BD
:103C70001417FA8A13465B0013449B000B449B788D
:103C80007A7E9A4201D93C4B6AE07A7EFB8A1946D9
:103C9000F86801F078FB03467B75FB79002B0BD1AC
:103CA0007B7D03F01003002B04D07B7D03F0080321
:103CB000002B01D12C4B53E0FB79002B0BD07B7DEB
:103CC00003F02003002B04D07B7D03F00403002BC2
:103CD00001D1254B44E07A7EFB8A1946F86801F051
:103CE00001FB03463B753A7D3B7E9A4201D21E4B57
:103CF00036E07B7DDB09DAB23B6B1A707A7EFB8A99
:103D00001946F86801F093FB02463B681A607B7D18
:103D100003F04003002B22D0BB6A1B789AB23B7E93
:103D20009BB2D31A9BB2BB8313E0FB6A1B785AB2D7
:103D3000B7F91C30012101FA03F35BB213435BB204
:103D4000DAB2FB6A1A70B7F91C309BB201339BB22E
:103D5000BB83B7F91C30BA6A12789342E5DB0023C3
:103D600018462037BD4680BD4100040642000406C7
:103D70003C0A0020400A00200000020680B58EB0F8
:103D800004AF78600B46FB700023FB7400233B629A
:103D90007B68DB680433FB61FB78FB8447E000232E
:103DA000FB72FB7C7B76FB691A1DFA611B687B61E9
:103DB0007B68586807F10C0207F10A03029307F1C8
:103DC0000B03019307F11303009313460022796953
:103DD000FFF7E8FE38623B6A002B0AD00023FB7431
:103DE0007B6818687B694FF402421A21FEF781FD57
:103DF00021E07B7E7B830FE0FA68531CFB60B7F900
:103E00001A30796806339B000B445A60B7F91A30B0
:103E10009BB201339BB27B83B7F91A30FA7C934291
:103E2000EADBB7F926309BB2013B9BB2FB84B7F9C2
:103E30002630002BB3DCFA7C7B689A763B6A184606
:103E40002837BD4680BD80B58EB004AF78600B4684
:103E5000FB700023FB7400233B627B68DB68043348
:103E6000FB617B68002283F84420FB78FB8445E0FB
:103E7000FB7C7B76FB691A1DFA611B687B617B68A2
:103E800058687B68443307F10C0107F10B0202927A
:103E9000019307F1130300930B4601227969FFF7A1
:103EA00081FE38623B6A002B0AD00023FB747B68DA
:103EB00018687B694FF402421A21FEF71AFD21E0CF
:103EC0007B7E7B830FE0FA68531CFB60B7F91A30E6
:103ED000796806339B000B445A60B7F91A309BB2DD
:103EE00001339BB27B83B7F91A30FA7C9342EADB49
:103EF000B7F926309BB2013B9BB2FB84B7F9263061
:103F0000002BB5DCFA7C7B689A763B6A184628372A
:103F1000BD4680BD80B588B000AF78607B681B6807
:103F20007B617B68DB7D002B29D07B689B7D012B2F
:103F300023D17B685B681846FFF720FDF861FB69B9
:103F40009BB27A69D28A934209D17B69DB8A002BC2
:103F500005D07B691B7D1A46FB691344FB617B69B5
:103F60005B7E002B03D1FB6943F00043FB617B6860
:103F70005B68F9691846FFF70FFD00237EE07B6957
:103F80001B7E03F00403002B01D03E4B76E07B69DF
:103F90001B6993F90030052B07D17B691B7E03F069
:103FA0000103002B01D0384B68E07B689B7D012B1F
:103FB0003AD17B685B681846FFF7E0FCB861BA69E4
:103FC000324B1340002B01D0314B57E0BB699BB201
:103FD0007A69D28A11467A69127D0A4493420FD1D6
:103FE000BB6903F04043BB617B69DB8A1A46BB694E
:103FF0001344BB617B685B68B9691846FFF7CCFC6A
:104000007B695B7E002B0AD07B699B685A68BB6921
:10401000534023F04043002B01D01D4B2EE0B969E3
:104020007869FFF717FD28E07B689B7D022B24D180
:104030007B685B683B617B6993F84030FB733B694D
:104040001B78F02B05D93B691B78FD2B01D8104B51
:1040500014E03B691B78F02B94BF01230023DBB2F3
:104060001A467B6983F840207B6993F84030FA7BDD
:104070009A4202D07B6900229A64002318462037B6
:10408000BD4680BD02000106220000080080FF3FFF
:104090003000090680B588B000AF78607B681B6887
:1040A0007B617B689B7D042B01D1734BE0E07B68D7
:1040B000DB7D002B29D07B689B7D012B23D17B6886
:1040C0005B681846FFF75AFCF861FB699BB27A6996
:1040D000D28A934209D17B69DB8A002B05D07B69A8
:1040E0001B7D1A46FB691344FB617B695B7E002BD9
:1040F00003D1FB6943F00043FB617B685B68F969AE
:104100001846FFF749FC0023B2E07B691B7E03F0F1
:104110000403002B01D0594BAAE07B691B6993F97A
:104120000030052B07D17B691B7E03F00103002BB8
:1041300001D0534B9CE07B689B7D012B43D17B6876
:104140005B681846FFF71AFCB861BA694D4B13401B
:10415000002B01D04C4B8BE0BB699BB27A69D28AB1
:1041600011467A69127D0A4493420FD1BB6903F06C
:104170004043BB617B69DB8A1A46BB691344BB6160
:104180007B685B68B9691846FFF706FC7B695B7E54
:10419000002B0AD07B699B685A68BB69534023F0A7
:1041A0004043002B01D0384B62E07B691B6D9B7B49
:1041B000DBB21A46B9697869FFF7ACFC7B69FF226C
:1041C00083F8452053E07B689B7D022B1BD17B68E5
:1041D0005B68BB60BB681B78F02B05D9BB681B789C
:1041E000FD2B01D8284B43E0BB681B78F02B94BF14
:1041F00001230023DAB27B691B6D9A737B69FF226E
:1042000083F8452033E07B689B7D032B09D17B69D4
:104210005B7E002B01D01C4B2AE07B690022DA6315
:1042200025E07B689B7D052B0ED17B685B6818467B
:10423000FFF795FB0346FB81FB894FF47A7203FB82
:1042400002F27B691A6412E07B689B7D062B0ED11B
:104250007B685B683B617B695B7E002B01D00A4B0E
:1042600006E03B691B78F02B01D9074B00E00023E7
:1042700018462037BD4680BD110009060200010620
:10428000220000080080FF3F3000090680B58CB096
:1042900004AF78607B681B68FB617B68DB7D002B6B
:1042A0000FD07B685B683B617B689B7D002B06D1F0
:1042B000FB699B7E002B02D13B6900221A70002310
:1042C00054E0FB691B7E03F00803002B01D0294B4F
:1042D0004CE0FB691B6993F90030052B07D1FB69A2
:1042E0001B7E03F00203002B01D0234B3EE0FB6951
:1042F0005B7E002B01D0214B38E07B689B7D002B3F
:1043000010D17B685B687B617B691B78082B01D9C6
:104310001B4B2BE07B691B781946F869FFF72EFDD4
:10432000034623E07B685B681846FFF727FBB8610C
:104330000023FB720023BB72FB699B7E002B01D024
:104340000E4B13E0FB69586807F10C0207F10903F3
:10435000029307F10A03019307F10B03009313463D
:104360000022B969FFF71EFC034600BF184620373C
:10437000BD4680BD020001062200000800000106C3
:104380004200040680B58CB004AF78607B681B687F
:10439000FB617B68DB7D002B0FD07B685B683B613A
:1043A0007B689B7D002B06D1FB699B7E002B02D195
:1043B0003B6900221A70002354E0FB691B7E03F066
:1043C0000803002B01D0294B4CE0FB691B6993F9D2
:1043D0000030052B07D1FB691B7E03F00203002B85
:1043E00001D0234B3EE0FB695B7E002B01D0214BCB
:1043F00038E07B689B7D002B10D17B685B687B611C
:104400007B691B78082B01D91B4B2BE07B691B7840
:104410001946F869FFF717FD034623E07B685B68E0
:104420001846FFF7ABFAB8610023FB720023BB729A
:10443000FB699B7E002B01D00E4B13E0FB69586893
:1044400007F10C0207F10903029307F10A03019334
:1044500007F10B03009313460122B969FFF7A2FB92
:10446000034600BF18462037BD4680BD0200010646
:1044700022000008000001064200040680B586B054
:1044800002AFF860B9607A603B60FB68002B11D026
:10449000BB68002B0ED07B68002B0BD0BB69002BB8
:1044A00008D0BB6A002B05D0FB6A002B02D0BB6B87
:1044B000002B02D14FF0FF334FE0FB68BA681A605F
:1044C000FB687A685A60FB683A68DA63FB68BA6A24
:1044D0009A60FB68FA6ADA60FB68BA691A61FB687D
:1044E0003A7F1A75FB683A8CDA82FB6897F82420C9
:1044F0001A76FB680022DA65FB6800221A66398E9C
:104500000023019300230093FB68164A786800F0AB
:1045100039FEB98E0023019300230093FB68124AF1
:10452000786800F02FFEFB6800225A64FB680022C6
:104530009A64FB68BA6B5A66FB68BA8FA3F8682066
:10454000FB6A1B781946F868FFF718FCBB6A5B68C2
:104550001946F868FFF77EFA002318461037BD4663
:1045600080BD00BF153F00088D42000880B586B0B1
:1045700002AFF860B9607A603B60FB68002B11D035
:10458000BB68002B0ED07B68002B0BD0BB69002BC7
:1045900008D0BB6A002B05D0FB6A002B02D0BB6B96
:1045A000002B02D14FF0FF3370E0FB68BA681A604D
:1045B000FB687A685A60FB683A689A64FB68BA6A72
:1045C0009A60FB68FA6ADA60FB68BA691A61FB688C
:1045D0003A7F1A75FB683A8CDA82FB6897F82420D8
:1045E0001A76398E0023019300230093FB68294A31
:1045F000786800F0C7FDB98E002301930023009373
:10460000FB68254A786800F0BDFDFB68BA6BDA6488
:10461000FB68BA8FA3F85420FB680022DA63BB6AF8
:10462000DB891A464FF47A7303FB02F2FB681A64C3
:10463000BB6A1B7AFD2B02D9FB680122DA76FB6A82
:104640001B781946F868FFF7FEFBFB68FF2283F82A
:104650004520BB6A5968BB6A1B7AF02B94BF0123C3
:104660000023DBB21A46F868FFF754FABB6A1B7ADC
:10467000F02B03D9BB6A1B7AFD2B03D9BB6A1B7CC9
:10468000F02B02D9FB6800225A7600231846103717
:10469000BD4680BD954000088543000880B485B0C4
:1046A00000AF78607B681B6D7A68927E1344053397
:1046B000FB607B689B7E06339B007A68134404335F
:1046C000BB607B689B7E013B072B00F2C28001A28E
:1046D00052F823F027480008FB470008CF4700089E
:1046E000A3470008774700084B4700081F4700080A
:1046F000F5460008FB68013BFB60FB681A78BB6865
:10470000043BBB60BB681B681B789A4207D07B6880
:1047100093F844305BB2002B01DA01239AE0FB6886
:10472000013BFB60FB681A78BB68043BBB60BB685D
:104730001B681B789A4208D07B6893F8443003F0DA
:104740004003002B01D0012384E0FB68013BFB60A8
:10475000FB681A78BB68043BBB60BB681B681B78AE
:104760009A4208D07B6893F8443003F02003002B72
:1047700001D001236EE0FB68013BFB60FB681A7807
:10478000BB68043BBB60BB681B681B789A4208D0BF
:104790007B6893F8443003F01003002B01D0012311
:1047A00058E0FB68013BFB60FB681A78BB68043B80
:1047B000BB60BB681B681B789A4208D07B6893F883
:1047C000443003F00803002B01D0012342E0FB68D2
:1047D000013BFB60FB681A78BB68043BBB60BB68AD
:1047E0001B681B789A4208D07B6893F8443003F02A
:1047F0000403002B01D001232CE0FB68013BFB608C
:10480000FB681A78BB68043BBB60BB681B681B78FD
:104810009A4208D07B6893F8443003F00203002BDF
:1048200001D0012316E0FB68013BFB60FB681A78AE
:10483000BB68043BBB60BB681B681B789A4208D00E
:104840007B6893F8443003F00103002B01D001236F
:1048500000E0002318461437BD465DF8047B70471E
:1048600080B594B000AF78607B685B68D3F81C3784
:10487000002B7CD07B68DB6804333B647B685B681F
:10488000FB637B68DB681B78A7F84E306BE03B6C02
:104890001A1D3A641B68BB63BB6B1B0CFB86BB6BAE
:1048A0001B0A87F83530FB8E1946F86B00F0C2FC06
:1048B00003467B867B8E4FF6FF72934249D0FB6B9B
:1048C000D3F81C177A8E13465B0013449B000B44ED
:1048D000FB62FB6A1B68002B3DD007F10803242212
:1048E0000021184612F0FAFA0123FB77FB8EBB83F6
:1048F00097F83530BB77FB6A5B68BB6097F835206B
:104900007B8E1946F86B00F03EFD0346FB8297F85C
:1049100035207B8E1946F86B00F0D6FD0346BB614F
:1049200097F835207B8E1946F86B00F080FD034622
:10493000FB6097F835207B8E1946F86B00F0D2FCAF
:104940000346BB82FB6A1B6807F1080210469847C2
:1049500002E000BF00E000BFB7F94E309BB2013B60
:104960009BB2A7F84E30B7F94E30002B8FDC7B6836
:104970009B7EA7F84E307B681B6D0533BB647B685C
:104980001C337B640FE07B6C1A1D7A641A68BB6C65
:10499000591CB96412781A70B7F94E309BB2013BBA
:1049A0009BB2A7F84E30B7F94E30002BEBDC7B689A
:1049B0000022DA767B68DA6C7B681B6D194610463C
:1049C00004F038FC03461BB218465037BD4680BD84
:1049D00080B596B000AF78600B46FB70012387F876
:1049E00057307B6893F84030002B05D0FB78002BC4
:1049F00002D1002387F857307B685B7E002B05D0FF
:104A00007B681B6993F90030052B06D07B68002278
:104A10005A647B6800229A64DCE097F85730002BD8
:104A200000F0D880002387F85630002387F85530EF
:104A30007B68DB6B002B3CD07B6893F84030002B0D
:104A400037D07B68DB6B1B7F002B32D1012387F8CB
:104A500055302EE07B689B7EA7F8523097F8553092
:104A60000933DB007A6813440433FB647B681C332E
:104A7000BB6497F855307A6810339B0013440022CA
:104A80005A600FE0FB6C5A1CFA64BA6C111DB964D1
:104A900012681B781370B7F952309BB2013B9BB27E
:104AA000A7F85230B7F95230002BEBDC012387F81E
:104AB000563097F855307A6810339B0013445B6882
:104AC000002BC7D197F85630002B00F083807B680D
:104AD0005B68D3F81C37002B7CD07B68DB68043321
:104AE0003B647B685B68FB637B68DB681B78A7F8CB
:104AF00046306BE03B6C1A1D3A641B68BB63BB6BB2
:104B00001B0CFB86BB6B1B0A87F83530FB8E1946E6
:104B1000F86B00F08FFB03467B867B8E4FF6FF72AF
:104B2000934249D0FB6BD3F81C177A8E13465B0077
:104B300013449B000B44FB62FB6A1B68002B3DD0B7
:104B400007F1080324220021184612F0C7F90023B8
:104B5000FB77FB8EBB8397F83530BB77FB6A5B68CE
:104B6000BB6097F835207B8E1946F86B00F00BFC84
:104B70000346FB8297F835207B8E1946F86B00F0D0
:104B8000A3FC0346BB6197F835207B8E1946F86B72
:104B900000F04DFC0346FB6097F835207B8E1946EC
:104BA000F86B00F09FFB0346BB82FB6A1B6807F1B2
:104BB00008021046984702E000BF00E000BFB7F9C6
:104BC00046309BB2013B9BB2A7F84630B7F946305E
:104BD000002B8FDC00BF5837BD4680BD80B584B048
:104BE00000AFF8607A603B600B46FB72FB68DB6BE2
:104BF0007A689A4204D2FB68DA6B7B68D31A00E0C9
:104C00000023FA68D363FB681B6C7A689A4204D26B
:104C1000FB681A6C7B68D31A00E00023FA681364FF
:104C2000FB685B7E002B00F0B280FB681B6993F988
:104C30000030052B40F0AB80FB689B681B7AFC2B97
:104C40004CD9FB68DB6B002B25D1FB68DB7E002B8E
:104C500008D1FB689B68DB89002B1CD0FB681B6CB0
:104C6000002B18D1F868FFF7FBFD0346002B12D18B
:104C7000FB689B685B891A46642303FB02F2FB68AE
:104C8000DA63FB689B68DB891A464FF47A7303FB8F
:104C900002F2FB681A643B68002B00F08580FB6819
:104CA000DB7E002B0AD03B681A68FB68DB6B9A42FC
:104CB00004D9FB68DA6B3B681A6075E0FB689B6897
:104CC000DB89002B70D03B681A68FB681B6C9A422A
:104CD0006AD9FB681A6C3B681A6065E0FB689B6CDC
:104CE000002B61D0FB7A002B5ED0FB689B681B7A9F
:104CF000002B07D1FB68DB7E002B55D0F868FFF74F
:104D0000AFFD51E0FB6893F84530FF2B14D1FB68F1
:104D10009B6C1B7D002B09D0FB689B681B7C002BC8
:104D200004D0FB68FE2283F8452005E0FB689B6801
:104D30001A7AFB6883F84520FB6893F84530FE2B10
:104D40000ED1FB689B6C5A7FFB689B681B7C9A4268
:104D50002AD1FB689B681A7AFB6883F8452023E018
:104D6000FB6893F84530013BDAB2FB6883F84520D5
:104D7000FB6893F84530002B16D1FB689B681A7AC4
:104D8000FB6883F84520F868FFF76AFD0CE0FB68D4
:104D90009B681B7AFD2B03D9FB680122DA7604E0BD
:104DA000FB680022DA7600E000BF00BF1037BD4686
:104DB00080BD80B485B000AF78607B681B68FB6005
:104DC000FB6818461437BD465DF8047B704780B415
:104DD00083B000AF786039603A687B681A6000BFC2
:104DE0000C37BD465DF8047B704790B587B000AFC7
:104DF000786039603B6893F82030BB753B6821339D
:104E00003B617B68FB60BB7D082B40F0B980FB6891
:104E1000D3F85C37002B40F0B380FB6893F8493738
:104E2000A52B24D03B691A78FB681A703B695A7825
:104E3000FB685A703B699A78FB689A703B69DA782C
:104E4000FB68DA703B691A79FB681A713B695A7919
:104E5000FB685A713B699A79FB689A713B69DA7908
:104E6000FB68DA71FB680122C3F85C2776E03B69D6
:104E70001A78FB681A70FB681B7803F07F03FB72DB
:104E8000FB680022C3F85027FB6893F85937002BC2
:104E900003D0FB68002283F85927FA7AFB6893F85D
:104EA0004A3701339A4246D1FB6893F84A370133B7
:104EB000DAB2FB6883F84A270123FB7522E0FB7D09
:104EC0003A691A44FB68D3F82817FB68B3F820370F
:104ED000581C84B2F868A0F820470B4412781A7066
:104EE000FB68B3F82037B3F5E16F08D3FB68A6225F
:104EF00083F84927FB680122C3F85C2705E0FB7DA6
:104F00000133FB75FB7D072BD9D9FB681B785BB29E
:104F1000002B07DBFB6893F84A27FB6893F85437AC
:104F20009A421BD3FB68A62283F84927FB6801221B
:104F3000C3F85C2712E0FB6893F84A37FA7A9A4282
:104F40000CD0FB6893F84A37002B07D0FB68A722E8
:104F500083F84927FB680122C3F85C27FB68D3F874
:104F60005C37002B0CD0FB68D3F86037002B07D0E0
:104F7000FB68D3F86037FA68D2F864271046984780
:104F800000BF1C37BD4690BD80B586B000AF7860CD
:104F900000237B617B681B683B617B685B6818460C
:104FA000FFF707FFF8607B68DB7D002B0ED07B6886
:104FB0009B7D002B0AD07B685A683B691B78194699
:104FC000FB680B4419461046FFF701FF7B69184642
:104FD0001837BD4680BD000080B58AB004AFF860C8
:104FE000B9607A607B800023FB75FB68002B05D0DD
:104FF000BB6B002B02D03B6C002B02D14FF0FF3378
:10500000B8E03B6A002B3BD1FB68012283F81027F4
:10501000FB687A6AC3F81427FB683A8DA3F818274F
:10502000FB68FA6AC3F81C270023BB8223E0FB68F5
:10503000D3F81C17BA8A13465B0013449B000B4439
:1050400000221A60FB68D3F81C17BA8A13465B006B
:1050500013449B000B4400225A60FB68D3F81C17D2
:10506000BA8A13465B0013449B000B4400229A60EB
:10507000BB8A0133BB82BA8A3B8D9A42D7D315E0F3
:10508000FB68002283F810273B6AD3F81427FB68DB
:10509000C3F814273B6AB3F81827FB68A3F818274E
:1050A0003B6AD3F81C27FB68C3F81C27FB6897F8FA
:1050B000302083F84827BB8E4FF47A7203FB02F24C
:1050C000FB68C3F84C27FB68002283F84927FB687C
:1050D0000022C3F85C27FB680022C3F86027FB6846
:1050E0000022C3F864277B88B3F5905F0BD1FB687F
:1050F00003F5E963798800220192002200921F4A99
:10510000F86800F03FF8BB68002B02DB7B68002BDF
:1051100003DA0023BB6000237B60BB689AB2B98FBF
:10512000174B0293FB6801930023009340F2FF7337
:10513000B86B03F0E9FF0346FB75FB683A6CC3F8F4
:1051400068277B689AB2B7F84410002301930823BC
:1051500000930023386C04F02DF80246FB68C3F876
:105160006C27FB68D3F86C37002B01D1FF23FB754C
:1051700097F9173018461837BD4680BD894F00088B
:10518000EB4D000880B588B000AFF8607A603B60F6
:105190000B467B817B891946F86800F04BF8034683
:1051A000BB83BB8B4FF6FF7293423FD0FB68D3F8B3
:1051B0001C17BA8B13465B0013449B000B44BB6166
:1051C000FB68D3F81417BA8B13465B0013449B009B
:1051D0000B449B78FB75BB697A681A60BB693A68B7
:1051E0005A60BB6A002B1DD097F82C30002B19D0C9
:1051F00097F82C20FB7D9A4214D1BB69BA6A9A6059
:105200000023FB8308E0BB699A68FB8B13440022F0
:105210001A70FB8B0133FB83FB7D9BB2FA8B9A42A6
:10522000F1D903E0BB6900229A60FFE700BF203795
:10523000BD4680BD80B487B000AF78600B467B80F0
:105240000023FB827B68B3F81837013BBB8228E060
:10525000FA8ABB8A1344DA0F13445B10FB817B6824
:10526000D3F81417FA8913465B0013449B000B44D0
:105270003B613B691B887A889A4201D1FB892BE00C
:105280003B691B887A889A4208D2FB89BB82BB8A19
:10529000002B06D0BB8A013BBB8202E0FB890133B5
:1052A000FB82FA8ABB8A9A42D2D3FA8ABB8A9A4292
:1052B00010D17B68D3F81417FA8A13465B001344A5
:1052C0009B000B443B613B691B887A889A4201D161
:1052D000FB8A01E04FF6FF7318461C37BD465DF8A8
:1052E000047B704780B485B000AF78600B467B804C
:1052F00013467B707B68D3F814177A8813465B00DB
:1053000013449B000B44FB607B884FF6FF72934273
:1053100001D1002331E0FB689B78002B09D1FB68A9
:105320009B68002B02D14FF4E16326E0FB68DB8829
:1053300023E0FB689B88002B0ED07B78002B01D1EB
:1053400001231AE0FB689B68002B02D14FF4E16354
:1053500013E0FB68DB8810E0FB689A687B78DB0071
:1053600013441B68002B02D14FF4E16305E0FB6896
:105370009A687B78DB001344DB8818461437BD46F7
:105380005DF8047B704780B485B000AF78600B4651
:105390007B8013467B707B68D3F814177A8813469A
:1053A0005B0013449B000B44BB607B884FF6FF728D
:1053B000934201D1002334E0BB689B78002B02D1DB
:1053C000BB689B882DE0BB689B88002B23D0002303
:1053D000FB73BB689B88BB81BB681B8841F20302DF
:1053E000934208D17B78002B05D10123FB73BB8945
:1053F00043F00803BB817B78002B0AD1FB7B002B99
:1054000007D1BB8923F01803BB81BB8943F0040398
:10541000BB81BB8905E0BB689A687B78DB001344DD
:105420009B8818461437BD465DF8047B704780B4EE
:1054300085B000AF78600B467B8013467B707B683D
:10544000D3F814177A8813465B0013449B000B446F
:10545000FB607B884FF6FF72934201D100232DE061
:10546000FB689B78002B02D1FB689B6826E0FB68F9
:105470009B787A789A4201D900231FE0FB689B88C9
:10548000002B15D07B78002B02D1FB68023315E08E
:10549000FB689B68002B01D100230FE0FB689B6831
:1054A0007A78013AF968C98801FB02F2134405E0F1
:1054B000FB689A687B78DB0013441B681846143736
:1054C000BD465DF8047B704780B485B000AF78605E
:1054D0000B467B8013467B707B884FF6FF729342AE
:1054E00004D07B68D3F81C37002B01D1002313E0D4
:1054F0007B68D3F81C177A8813465B0013449B0023
:105500000B44FB60FB689B68002B01D1002303E088
:10551000FB689A687B78134418461437BD465DF8DB
:10552000047B704780B584B000AF78600B467B8009
:1055300013467B707B687A88A3F838277B687A7873
:1055400083F83A277B8819467868FFF773FE03468D
:105550001A467B68A3F822277B68B3F822374FF6F8
:10556000FF72934201D14E4B96E07B68D3F814272B
:105570007B68B3F8223719460B465B000B449B004F
:1055800013449B787A789A4210D97B68D3F8142711
:105590007B68B3F8223719460B465B000B449B002F
:1055A00013449B68002B01D03E4B75E07B68B3F839
:1055B00022377A7819467868FFF739FF02467B6808
:1055C000C3F82C277B680022C3F824277B68D3F814
:1055D0001C37002B11D07B68D3F81C277B68B3F8ED
:1055E000223719460B465B000B449B001344FB60BB
:1055F000FB685A687B68C3F824277B6803F10802BC
:105600007B68C3F828277B68B3F822377A78194675
:105610007868FFF767FE03461A467B68A3F83027D1
:105620007B68B3F822377A7819467868FFF7ABFEC3
:1056300003461A467B68A3F832277B68B3F8223703
:105640007A7819467868FFF73FFF02467B68C3F80F
:1056500034277B68012283F83C277B68012283F88A
:105660003D277B68D3F82C37002B04D07B68B3F838
:1056700030371A4600E000227B68C3F840277B6879
:105680000022C3F844277B68B3F83037B3F5E16FE5
:1056900001D9054B00E0002318461037BD4680BDF8
:1056A00000000206110009064700040680B588B014
:1056B00000AF78600B467B807B68D3F82837FB61AE
:1056C0007B68D3F82C37BB617B68B3F83037FB823B
:1056D00000233B617B68B3F8323703F00403002BEF
:1056E00001D1304B5AE07B68D3F81C37002B0CD02B
:1056F0007B68D3F81C277B68B3F8223719460B4622
:105700005B000B449B0013443B61BB69002B0ED034
:1057100007E0BA69531CBB61FB69591CF961127837
:105720001A70FB8A5A1EFA82002BF2D105E03B69FF
:105730001B68002B01D11C4B30E07B68012283F8F1
:105740003B273B691B68002B19D03B691B687A68B3
:1057500002F2247210469847F860FB68002B01D0D3
:10576000FB681BE07B68B3F83037002B05D07B6803
:10577000B3F830377A889A4201D20B4B0EE07B683F
:10578000D3F844377A68B2F830271A447B68C3F8F4
:1057900044277B68002283F83C27002318462037E3
:1057A000BD4680BD010001064700040680B588B0F3
:1057B00000AF78600B467B807B68D3F82837FB61AD
:1057C0007B68D3F82C37BB610023FB757B68B3F88B
:1057D000323703F00803002B01D1374B67E0BB6978
:1057E000002B04D17B687A88A3F8302707E07B6818
:1057F000B3F830377A889A4201D0304B57E07B6853
:10580000002283F83B277B68D3F81C37002B1DD080
:105810007B68D3F81C277B68B3F8223719460B4600
:105820005B000B449B0013443B613B691B68002BEE
:105830000CD03B691B687A6802F2247210469847C4
:10584000F860FB68002B01D0FB6830E07B68D3F880
:1058500044377A68B2F830271A447B68C3F8442783
:105860007B68002283F83C277B68B3F8383741F225
:105870000302934206D17B6893F83A37002B01D19B
:105880000123FB75BB69002B10D0FB7D002B0DD1D4
:1058900007E0FA69531CFB61BB69591CB9611278B6
:1058A0001A707B885A1E7A80002BF2D1002318468A
:1058B0002037BD4680BD00BF02000106100007066C
:1058C00080B582B000AF786039607B68D3F86C3700
:1058D00080225A717B68B3F838277B68D3F86C371D
:1058E000D2B29A717B68B3F838371B0A9AB27B68D8
:1058F000D3F86C37D2B2DA717B68D3F86C377A6838
:1059000092F83A271A727B68D3F86C3709333A68F1
:105910001A607B68002283F849277B680022C3F85D
:105920005C277B68D3F868277B68D3F86C37194607
:10593000104603F07FFC00BF0837BD4680BD000065
:1059400090B593B000AFF8607A603B600B46FB7295
:10595000002387F84730002387F84630FB6893F828
:105960004937002B07D1FB68D3F85C37002B02D1F5
:10597000002301F011B9FB7A002B0AD1FB68002249
:1059800083F84927FB680022C3F85C27002301F055
:1059900003B9FB68D3F86C375B7BDBB2002B40F0BC
:1059A000E180FB68D3F85C37002B05D1FB6893F8E6
:1059B0004937B62B40F0D680FB681B785B0987F827
:1059C0003F30FB6893F84937B62B05D0FB680022BF
:1059D000C3F8502700237B60FB68D3F86C370022A4
:1059E0001A72FA68D2F86C271B7AD371FB68D3F865
:1059F0006C37D2799A71FA68D2F86C279B79537117
:105A0000FB68D3F86C3700221A73FA68D2F86C2757
:105A10001B7BD372FB68D3F86C37D27A9A72FA6820
:105A2000D2F86C279B7A5372FB68D3F85C37002B53
:105A30000FD0FB681B78802B0BD1FB68002283F80A
:105A40004927FB680022C3F85C274FF0FF3301F0C1
:105A5000A3B8FB6893F84937002B05D0FB6893F88F
:105A6000493787F847307DE097F83F30012B13D056
:105A700097F83F30022B0FD097F83F30062B0BD012
:105A800097F83F30052B07D0B449F868FFF718FFA7
:105A90004FF0FF3301F080B8FB689B78BB87BB8F6A
:105AA0001B021AB2FB685B781BB213431BB2BB87A5
:105AB000FB68DA78BB8F1946F868FFF733FDB863E7
:105AC000BB6B002B07D0B96BF868FFF7F9FE4FF0FE
:105AD000FF3301F061B897F83F30012B03D097F8FE
