:020000040800F2
:1000000000000220758200085517000857170008E5
:10001000591700085B1700085D1700080000000072
:1000200000000000000000000000000001C1000806
:100030005F1700080000000091C10008F5C100082A
:10004000C5820008C5820008C5820008C582000874
:10005000C5820008C5820008C5820008C582000864
:1000600061170008C5820008C5820008C582000823
:10007000C5820008C5820008C5820008C582000844
:10008000C5820008C5820008C582000899170008CB
:10009000A5170008A9170008AD170008C5820008B9
:1000A000C5820008B1170008C5820008BD17000806
:1000B000C1170008C5820008C5820008C582000873
:1000C000C5820008C5820008C5820008C5820008F4
:1000D000C5820008CD170008C5820008C582000847
:1000E000C5820008C5820008C5820008C5820008D4
:1000F000D9170008C5820008C5820008C58200081B
:10010000C5820008C5820008F5170008C5820008EE
:10011000C5820008C5820008C5820008C5820008A3
:10012000C5820008C582000801180008C5820008C1
:10013000C58200080000000000000000C582000821
:10014000C5820008C5820008C5820008C582000873
:10015000C5820008C58200080D180008C582000885
:10016000C5820008C5820008C5820008C582000853
:10017000C5820008C58200080000000000000000E1
:08018000C5820008C5820008D9
:1001900010B5054C237833B9044B13B10448AFF3C1
:1001A00000800123237010BD8007002000000000A4
:1001B000CCF5000808B5034B1BB103490348AFF366
:1001C000008008BD0000000084070020CCF5000876
:1001D000034613F8012B002AFBD1181A0138704787
:1001E00001F0FF01102A2BDB10F0070F08D010F8E8
:1001F000013B013A8B422DD010F0070F42B3F6D1EC
:10020000F0B441EA012141EA014122F007047FF004
:1002100000070023F0E80256083C85EA010586EA5B
:10022000010685FA47F5A3FA87F586FA47F6A5FA97
:1002300087F68EB9EED1F0BC01F0FF0102F00702A3
:1002400032B110F8013B013A83EA010313B1F8D14E
:100250000020704701387047002D06BF354603382F
:10026000073815F0010F07D1013015F4807F02BF68
:10027000013015F4C03F0130F0BC0138704700BFB9
:1002800081F0004102E000BF83F0004330B54FEA47
:1002900041044FEA430594EA050F08BF90EA020FB4
:1002A0001FBF54EA000C55EA020C7FEA645C7FEA47
:1002B000655C00F0E2804FEA5454D4EB5555B8BF6A
:1002C0006D420CDD2C4480EA020281EA030382EADB
:1002D000000083EA010180EA020281EA0303362D6D
:1002E00088BF30BD11F0004F4FEA01314FF4801C40
:1002F0004CEA113102D0404261EB410113F0004F52
:100300004FEA03334CEA133302D0524263EB430308
:1003100094EA050F00F0A780A4F10104D5F1200EA6
:100320000DDB02FA0EFC22FA05F2801841F1000101
:1003300003FA0EF2801843FA05F359410EE0A5F1D5
:1003400020050EF1200E012A03FA0EFC28BF4CF006
:10035000020C43FA05F3C01851EBE37101F00045BC
:1003600007D54FF0000EDCF1000C7EEB00006EEBC9
:100370000101B1F5801F1BD3B1F5001F0CD3490853
:100380005FEA30004FEA3C0C04F101044FEA4452AA
:1003900012F5800F80F09A80BCF1004F08BF5FEA31
:1003A000500C50F1000041EB045141EA050130BD11
:1003B0005FEA4C0C404141EB0101013C28BFB1F523
:1003C000801FE9D291F0000F04BF01460020B1FA6E
:1003D00081F308BF2033A3F10B03B3F120020CDA41
:1003E0000C3208DD02F1140CC2F10C0201FA0CF01F
:1003F00021FA02F10CE002F11402D8BFC2F1200C84
:1004000001FA02F120FA0CFCDCBF41EA0C01904039
:10041000E41AA2BF01EB0451294330BD6FEA040482
:100420001F3C1CDA0C340EDC04F11404C4F120026D
:1004300020FA04F001FA02F340EA030021FA04F37F
:1004400045EA030130BDC4F10C04C4F1200220FAD6
:1004500002F001FA04F340EA0300294630BD21FA14
:1004600004F0294630BD94F0000F83F4801306BFDA
:1004700081F480110134013D4EE77FEA645C18BFCE
:100480007FEA655C29D094EA050F08BF90EA020F65
:1004900005D054EA000C04BF1946104630BD91EA5D
:1004A000030F1EBF0021002030BD5FEA545C05D160
:1004B0004000494128BF41F0004130BD14F580049F
:1004C0003CBF01F5801130BD01F0004545F0FE4113
:1004D00041F470014FF0000030BD7FEA645C1ABF48
:1004E000194610467FEA655C1CBF0B46024650EA7F
:1004F000013406BF52EA033591EA030F41F40021AB
:1005000030BD00BF90F0000F04BF0021704730B530
:100510004FF4806404F132044FF000054FF0000105
:1005200050E700BF90F0000F04BF0021704730B5C6
:100530004FF4806404F1320410F0004548BF40429B
:100540004FF000013EE700BF42004FEAE2014FEAF0
:1005500031014FEA02701FBF12F07F4393F07F4FCB
:1005600081F06051704732F07F4208BF704793F0CE
:100570007F4F04BF41F40021704730B54FF46074E1
:1005800001F0004521F000411CE700BF50EA0102E4
:1005900008BF704730B54FF000050AE050EA01028D
:1005A00008BF704730B511F0004502D5404261EBFD
:1005B00041014FF4806404F132045FEA915C3FF43E
:1005C000D8AE4FF003025FEADC0C18BF03325FEADB
:1005D000DC0C18BF033202EBDC02C2F1200300FA8C
:1005E00003FC20FA02F001FA03FE40EA0E0021FAB1
:1005F00002F11444BDE600BF70B54FF0FF0C4CF49F
:10060000E06C1CEA11541DBF1CEA135594EA0C0F50
:1006100095EA0C0F00F0DEF82C4481EA030621EA8B
:100620004C5123EA4C5350EA013518BF52EA0335C6
:1006300041F4801143F4801338D0A0FB02CE4FF078
:100640000005E1FB02E506F00042E0FB03E54FF0A8
:100650000006E1FB03569CF0000F18BF4EF0010EA0
:10066000A4F1FF04B6F5007F64F5407404D25FEA9C
:100670004E0E6D4146EB060642EAC62141EA55514F
:100680004FEAC52040EA5E504FEACE2EB4F1FD0C91
:1006900088BFBCF5E06F1ED8BEF1004F08BF5FEA0F
:1006A000500E50F1000041EB045170BD06F00046C1
:1006B00046EA010140EA020081EA0301B4EB5C046E
:1006C000C2BFD4EB0C0541EA045170BD41F4801166
:1006D0004FF0000E013C00F3AB8014F1360FDEBF8B
:1006E000002001F0004170BDC4F10004203C35DA67
:1006F0000C341BDC04F11404C4F1200500FA05F3EA
:1007000020FA04F001FA05F240EA020001F000428A
:1007100021F0004110EBD37021FA04F642EB060100
:100720005EEA430E08BF20EAD37070BDC4F10C042A
:10073000C4F1200500FA04F320FA05F001FA04F2EE
:1007400040EA020001F0004110EBD37041F10001DA
:100750005EEA430E08BF20EAD37070BDC4F12005E5
:1007600000FA05F24EEA020E20FA04F301FA05F24D
:1007700043EA020321FA04F001F0004121FA04F2F5
:1007800020EA020000EBD3705EEA430E08BF20EAC5
:10079000D37070BD94F0000F0FD101F000464000FF
:1007A00041EB010111F4801F08BF013CF7D041EA81
:1007B000060195F0000F18BF704703F00046520085
:1007C00043EB030313F4801F08BF013DF7D043EA56
:1007D0000603704794EA0C0F0CEA135518BF95EA0C
:1007E0000C0F0CD050EA410618BF52EA4306D1D193
:1007F00081EA030101F000414FF0000070BD50EAB2
:10080000410606BF1046194652EA430619D094EA3B
:100810000C0F02D150EA013613D195EA0C0F05D125
:1008200052EA03361CBF104619460AD181EA030179
:1008300001F0004141F0FE4141F470014FF0000031
:1008400070BD41F0FE4141F4780170BD70B54FF0CC
:10085000FF0C4CF4E06C1CEA11541DBF1CEA13554C
:1008600094EA0C0F95EA0C0F00F0A7F8A4EB05042E
:1008700081EA030E52EA03354FEA013100F0888025
:100880004FEA03334FF0805545EA131343EA1263EE
:100890004FEA022245EA111545EA10654FEA0026A3
:1008A0000EF000419D4208BF964244F1FD0404F55C
:1008B000407402D25B084FEA3202B61A65EB0305B8
:1008C0005B084FEA32024FF480104FF4002CB6EB75
:1008D000020E75EB030E22BFB61A754640EA0C00F5
:1008E0005B084FEA3202B6EB020E75EB030E22BF35
:1008F000B61A754640EA5C005B084FEA3202B6EB76
:10090000020E75EB030E22BFB61A754640EA9C0034
:100910005B084FEA3202B6EB020E75EB030E22BF04
:10092000B61A754640EADC0055EA060E18D04FEAC2
:10093000051545EA16754FEA06164FEAC30343EA62
:1009400052734FEAC2025FEA1C1CC0D111F4801F2F
:100950000BD141EA00014FF000004FF0004CB6E728
:1009600011F4801F04BF01430020B4F1FD0C88BFC7
:10097000BCF5E06F3FF6AFAEB5EB030C04BFB6EBD2
:10098000020C5FEA500C50F1000041EB045170BDC5
:100990000EF0004E4EEA113114EB5C04C2BFD4EBF2
:1009A0000C0541EA045170BD41F480114FF0000E76
:1009B000013C90E645EA060E8DE60CEA135594EAF2
:1009C0000C0F08BF95EA0C0F3FF43BAF94EA0C0FF5
:1009D0000AD150EA01347FF434AF95EA0C0F7FF46A
:1009E00025AF104619462CE795EA0C0F06D152EABE
:1009F00003353FF4FDAE1046194622E750EA4106A2
:100A000018BF52EA43067FF4C5AE50EA41047FF4B2
:100A10000DAF52EA43057FF4EBAE12E74FF0FF3C17
:100A200006E000BF4FF0010C02E000BF4FF0010CE8
:100A30004DF804CD4FEA410C7FEA6C5C4FEA430C61
:100A400018BF7FEA6C5C1BD001B050EA410C0CBFB0
:100A500052EA430C91EA030F02BF90EA020F002012
:100A6000704710F1000F91EA030F58BF994208BF79
:100A700090422CBFD8176FEAE37040F00100704736
:100A80004FEA410C7FEA6C5C02D150EA013C07D18D
:100A90004FEA430C7FEA6C5CD6D152EA033CD3D0D8
:100AA0005DF8040B704700BF8446104662468C46D2
:100AB0001946634600E000BF01B5FFF7B7FF002805
:100AC00048BF10F1000F01BD4DF808EDFFF7F4FF2E
:100AD0000CBF012000205DF808FB00BF4DF808EDB9
:100AE000FFF7EAFF34BF012000205DF808FB00BFDC
:100AF0004DF808EDFFF7E0FF94BF012000205DF8FE
:100B000008FB00BF4DF808EDFFF7CEFF94BF0120B2
:100B100000205DF808FB00BF4DF808EDFFF7C4FFAB
:100B200034BF012000205DF808FB00BF4FEA410CF4
:100B30007FEA6C5C02D150EA013C0AD14FEA430CD7
:100B40007FEA6C5C02D152EA033C02D14FF0000014
:100B500070474FF0010070474FEA410212F5001252
:100B600015D211D56FF47873B3EB625212D94FEAF4
:100B7000C12343F0004343EA505311F0004F23FADE
:100B800002F018BF404270474FF00000704750EA33
:100B9000013005D111F0004008BF6FF000407047F0
:100BA0004FF00000704700BF53B94AB9002908BF91
:100BB00000281CBF4FF0FF314FF0FF3000F074B938
:100BC000ADF1080C6DE904CE00F006F8DDF804E0A4
:100BD000DDE9022304B070472DE9F047089D044683
:100BE0008E46002B4DD18A42944669D9B2FA82F2E0
:100BF00052B101FA02F3C2F1200120FA01F10CFA1C
:100C000002FC41EA030E94404FEA1C48210CBEFB53
:100C1000F8F61FFA8CF708FB16E341EA034306FBDC
:100C200007F199420AD91CEB030306F1FF3080F06B
:100C30001F81994240F21C81023E63445B1AA4B2B8
:100C4000B3FBF8F008FB103344EA034400FB07F75A
:100C5000A7420AD91CEB040400F1FF3380F00A819B
:100C6000A74240F207816444023840EA0640E41B90
:100C700000261DB1D4400023C5E900433146BDE83C
:100C8000F0878B4209D9002D00F0EF800026C5E9DE
:100C9000000130463146BDE8F087B3FA83F6002EF6
:100CA0004AD18B4202D3824200F2F980841A61EB6E
:100CB000030301209E46002DE0D0C5E9004EDDE78C
:100CC00002B9FFDEB2FA82F2002A40F09280A1EB74
:100CD0000C014FEA1C471FFA8CFE0126200CB1FBC9
:100CE000F7F307FB131140EA01410EFB03F08842C2
:100CF00008D91CEB010103F1FF3802D2884200F24F
:100D0000CB804346091AA4B2B1FBF7F007FB1011E0
:100D100044EA01440EFB00FEA64508D91CEB04047E
:100D200000F1FF3102D2A64500F2BB800846A4EBD9
:100D30000E0440EA03409CE7C6F12007B34022FAC4
:100D400007FC4CEA030C20FA07F401FA06F31C43F3
:100D5000F9404FEA1C4900FA06F3B1FBF9F8200C00
:100D60001FFA8CFE09FB181140EA014108FB0EF046
:100D7000884202FA06F20BD91CEB010108F1FF3A96
:100D800080F08880884240F28580A8F102086144A2
:100D9000091AA4B2B1FBF9F009FB101144EA0141B0
:100DA00000FB0EFE8E4508D91CEB010100F1FF345B
:100DB0006CD28E456AD90238614440EA0840A0FBF3
:100DC0000294A1EB0E01A142C846A64656D353D0C9
:100DD0005DB1B3EB080261EB0E0101FA07F722FAED
:100DE00006F3F1401F43C5E9007100263146BDE816
:100DF000F087C2F12003D8400CFA02FC21FA03F379
:100E0000914001434FEA1C471FFA8CFEB3FBF7F0F9
:100E100007FB10360B0C43EA064300FB0EF69E421E
:100E200004FA02F408D91CEB030300F1FF382FD2B7
:100E30009E422DD9023863449B1B89B2B3FBF7F65F
:100E400007FB163341EA034106FB0EF38B4208D938
:100E50001CEB010106F1FF3816D28B4214D9023E79
:100E60006144C91A46EA004638E72E46284605E797
:100E70000646E3E61846F8E64B45A9D2B9EB020868
:100E800064EB0C0E0138A3E74646EAE7204694E7F8
:100E90004046D1E7D0467BE7023B614432E730462B
:100EA00009E76444023842E7704700BF0B480C4A28
:100EB00008B50E23C0E9002300234FF410228361FC
:100EC0008383C0E90233C0E9042307F03DFA18B177
:100ED000BDE8084000F024BB08BD00BF9C0700200F
:100EE0000064004010B5044688B01422002103A815
:100EF0000BF012FC2268244B9A4243D1002403F5E4
:100F0000EA3301941A6C214842F000721A641A6C98
:100F100002F000720192019A02941A6B42F00202EE
:100F20001A631B6B03F0020302934FF44072029B9F
:100F30000223CDE9032303210923CDE9061303A9E5
:100F400007F080FF22460C21132007F087FD1320B5
:100F500007F0B6FD22460C21142007F07FFD142077
:100F600007F0AEFD22460C21152007F077FD152075
:100F700007F0A6FD162022460C2107F06FFD162073
:100F800007F09EFD08B010BD006400400004024060
:100F900008B502680D4B9A4217D10D4A0D48136CE3
:100FA00023F0007313644FF4407108F027F8132006
:100FB00007F094FD142007F091FD152007F08EFD39
:100FC000BDE80840162007F089BD08BD0064004058
:100FD000003802400004024007B50F4B0022019286
:100FE000196B41F4800119631B6B03F480031146F4
:100FF00001933A20019B07F031FD3A2007F060FD94
:1010000000221146462007F029FD462003B05DF876
:1010100004EB07F055BD00BF0038024008B50420BE
:1010200009F0C6FBFBE70000F8B5114D114E124F59
:10103000002401342B68B4F57A7F28BF0024A3B1C3
:1010400033681B689B69002B0CBF32220A22B4FB59
:10105000F2F302FB134323B94FF40051384608F072
:101060006EF8142009F0A4FBE3E73222EFE700BF9B
:1010700054080020F80B00200008024008B508487A
:1010800006F0B2FF04F080FF064804F08BFF05F085
:10109000FFF8042005F0AAF8042009F089FBF8E71E
:1010A000580B0020CC07002073B504F0C7FD1A4C84
:1010B0000F25194804F0FFFD40B1013D0120ADB2FC
:1010C00009F076FB002DF4D102B070BD21881348E1
:1010D000134E144D89B20CF087F8208880B204F0CA
:1010E000EFFD2388ADF80630208880B204F004FEBE
:1010F000208896ED000A80B204F09CFE28600DF175
:10110000060004F0D8FD18B9BDF8063003B12380FD
:10111000022009F04DFBE7E748080020E8F5000849
:10112000000000204C08002013B504F0ABF960B9B2
:10113000194B1A48197804F0B5F9014658B1184806
:1011400002B0BDE810400CF04FB8164802B0BDE840
:1011500010400CF0CFB8144B144C01221A602068D8
:1011600003689B7C9BB101AA4FF47A6103F0C8FF2E
:1011700001AA4FF47A61206804F004F801464FF4A4
:101180007A6004F059FA2368186804F0E5FB04203B
:1011900009F00EFBE3E700BF080000209C070020D9
:1011A00017F60008FFF5000854080020F80B00208F
:1011B00008B506F0F5FE01221146032004F0BCFC40
:1011C00000221421642009F081FC144B186005F002
:1011D00069F8134A1348002109F094FA124B134A94
:1011E00018600021124809F08DFA124B124A18605B
:1011F0000021124809F086FA114B124A18600021AA
:10120000114809F07FFA114B114A1860002111486A
:1012100009F078FA104B186008BD00BF5008002094
:10122000D4F600081D100008C80700208CF600083E
:101230002910000858080020F8F60008A910000836
:1012400044080020B0F600087D1000085C0800206B
:1012500068F6000829110008C407002007B500231C
:101260004FF0FF32CDE900329FED040A04481A46E0
:10127000194606F0C7FC03B05DF804FB9A99993D46
:10128000CC0700202DE9F04314228BB00DEB0200B7
:1012900000210BF041FA0024544B00941A6BDFF844
:1012A0006491534F534E42F004021A631A6B02F0DA
:1012B00004020092009A01941A6B42F080021A63B1
:1012C0001A6B02F080020192019A02941A6B42F0AA
:1012D00001021A631A6B02F001020292029A03944D
:1012E0001A6B42F002021A631A6B02F002020392B6
:1012F000039A04941A6B42F008021A631B6B03F002
:10130000080304932246484642F27131049B07F0D9
:1013100011FF2246384641F2020107F00BFF224638
:1013200030464FF4004107F005FF012542F27033CB
:1013300005A94846CDE905354FF00208CDE9074437
:1013400007F080FD05A94846CDE905550795CDF87C
:10135000208007F077FD05A93846CDE90585CDE960
:10136000074807F06FFD4FF4004305A93046CDE96B
:101370000535CDE9074407F065FD4FF4006305A985
:101380003846CDE90534079407F05CFD4FF48053EF
:1013900005A93846CDE90535CDE9074407F052FDEA
:1013A00004230593144B15481B6805A9CDE90634A1
:1013B00007F048FD124B0794102205A93046CDE9ED
:1013C000052307F03FFDC02305A93046CDE90534CC
:1013D000079407F037FD22460621082007F03EFB60
:1013E000082007F06DFB0BB0BDE8F0830038024029
:1013F000000002400004024004000020000C0240F3
:10140000000011100008024070B594B010220021B5
:101410000AA80BF081F90021142203A80BF07CF933
:1014200000241C4B01941A6C42F080521A641B6C0D
:1014300003F080530193019B174B02941A6842F406
:1014400080421A601B6803F4804302930122029BCE
:101450004FF48033CDE9082302254FF48003CDE912
:101460000E530F26C023CDE9106308A8042313935D
:10147000129507F079FE4FF480534FF4A051CDE957
:10148000061303A80521CDE90365059408F044F887
:1014900014B070BD003802400070004008B500F084
:1014A000BBF906F011FFFFF7AFFFFFF7EBFEFFF709
:1014B00093FDFFF7FBFC00F057F800F06DFB00F028
:1014C00013FA00F045FA00F043FC00F02BF800F0AE
:1014D000B9FB00F00DFC064B01221A7005F058FC18
:1014E00009F0D6F8FFF764FE09F0ECF8FEE700BF5C
:1014F000600800200268084B9A4210B5044601D1EA
:1015000006F0FCFE2268054B9A4204D1BDE810406B
:10151000042005F0ADB810BD001C0040000C0040D8
:10152000704700000E480F4A08B54FF48273C0E9B7
:1015300000230023C0E90233C0E90433C0E90833C3
:101540004FF40071282283620A23C0E90612C362A5
:1015500008F024F918B1BDE80840FFF7E1BF08BD65
:1015600064080020003800401048114A08B54FF4C4
:101570008273C0E9002300234FF40062C0E9023205
:1015800001214FF40072C0E905122822C0E90723A7
:10159000C0E9093303610A23C36208F0FFF818B1F8
:1015A000BDE80840FFF7BCBF08BD00BFBC08002075
:1015B000003C0040F0B514228BB0044600210DEB36
:1015C00002000BF0A9F82368304A934238D1304B1F
:1015D0003048002400941A6C42F480421A641A6C59
:1015E00002F480420092009A01941A6B42F00402C5
:1015F0001A631A6B02F004020192019A02941A6BA8
:1016000042F002021A631B6B03F002030293029B77
:1016100002270C230326052505A9CDE90537CDE9C9
:10162000086507F00FFC4FF48063CDE90537CDE97D
:1016300007461948099505A907F004FC0BB0F0BD51
:10164000164A9342FAD1124B1248002103911A6CA8
:1016500042F400421A641A6C02F400420392039AA4
:1016600004911A6B42F004021A631B6B03F004032B
:101670000493049B4FF4E05202230321CDE9052398
:101680000623CDE9081305A9D6E700BF00380040BE
:10169000003802400008024000040240003C0040C4
:1016A00082B00C4B002100915A6C42F480425A6483
:1016B0005A6C02F480420092009A01911A6C42F036
:1016C00080521A641B6C03F080530193019B02B09B
:1016D000704700BF0038024030B5014689B0002293
:1016E0002C2007F0BBF92C2007F0EAF90025154B58
:1016F00002951A6C144C42F080021A641B6C03F0C1
:101700008003029301A903A8029B07F0C1FF07F021
:101710009FFF0E4B236040F2E733E36040000C4B29
:10172000B0FBF3F00138606020462561A56008F049
:1017300011FB20B9204608F0F2F909B030BD0120B4
:10174000FBE700BF0038024014090020001C0040E5
:1017500040420F007047FEE7FEE7FEE7FEE77047F6
:1017600008B5042007F0F4FC0848042107F0DCFC6D
:10177000074B1B78834208D1064B1B78012B04D101
:10178000BDE80840042003F0A9BA08BD000C0240DF
:101790004A08002060080020014807F04DB800BF4B
:1017A0009C070020FFF7F8BFFFF7F6BFFFF7F4BF75
:1017B000014808F0C7B900BF58090020FFF7F8BF7B
:1017C000014808F0BFB900BFD8090020014808F05F
:1017D000B3BE00BF580B002008B5044808F0B2F9AA
:1017E000BDE80840024808F0ADB900BF580A002023
:1017F00014090020014808F0A5B900BF180A00200C
:10180000014807F061BA00BF980A0020014807F0BC
:101810005BBA00BFF80A002070470120704708B586
:101820000AF020FF162303604FF0FF3008BD08B513
:101830000AF018FF16230360FEE770B50D46144644
:101840000E46731B9C4201DC204670BDAFF3008046
:1018500006F8010BF5E770B50D4614460E46731BEE
:101860009C4201DC204670BD16F8010BAFF30080EE
:10187000F5E74FF0FF3070474FF400534B60002006
:101880007047012070470020704700000B4A116824
:1018900010B5034609B90A491160106809490A4C94
:1018A0000344091B8B4206D90AF0DCFE0C230360BB
:1018B0004FF0FF3010BD1360FCE700BF540900205B
:1018C000C86F00200000022000040000054BD3F880
:1018D000882042F47002C3F888204FF000629A60BA
:1018E000704700BF00ED00E010B500248AB01C2254
:1018F000214603A8CDE901440AF00EFF134840F247
:10190000E7334FF08042C0E90023C0E9024304619D
:10191000846108F039FA08B1FFF702FE20230B4872
:1019200001A9CDE9013408F0D9FB08B1FFF7F8FDB2
:1019300000220648059203A9CDE90322079208F088
:101940008DFA08B1FFF7ECFD0AB010BDD8090020F0
:1019500010B500248AB01C22214603A8CDE9014419
:101960000AF0DAFE1348144A84604F23C0E90023CA
:1019700040F69F73C0E90334846108F005FA08B1AA
:10198000FFF7CEFD20230B4801A9CDE9013408F073
:10199000A5FB08B1FFF7C4FD00220648059203A984
:1019A000CDE90322079208F059FA08B1FFF7B8FD14
:1019B0000AB010BD180A0020000C00401FB50368D3
:1019C000234A93421DD10022224B0192596C41F0CF
:1019D000010159645B6C03F0010311460193192066
:1019E000019B07F03BF8192007F06AF800221B2042
:1019F000114607F033F81B2005B05DF804EB07F043
:101A00005FB8154A934211D1124B00220292596CD1
:101A100041F0020159645B6C03F0020302932C2035
:101A20001146029B07F01AF82C20E5E70B4A934277
:101A30000BD100230393074B1A6C42F040021A6447
:101A40001B6C03F040030393039B05B05DF804FB9C
:101A5000000001400038024000040140001800402E
:101A60000368B3F1804F07B516D1002203F50E339A
:101A70000092196C41F0010119641B6C03F0010321
:101A800000931C201146009B06F0E8FF1C2003B0C9
:101A90005DF804EB07F014B80B4A934211D10B4BDD
:101AA00000220192196C41F0080119641B6C03F0CB
:101AB0000803019332200A21019B06F0CFFF322058
:101AC000E5E703B05DF804FB000C0040003802407D
:101AD00010B5044688B01422002103A80AF01CFEA9
:101AE0002368264A934218D100230093244B1A6B93
:101AF00042F001021A631B6B03F0010300934FF4E1
:101B00008070009B0223CDE9030301231D48079346
:101B100003A907F097F908B010BD1B4A934214D1EE
:101B200000230193164B19481A6B42F004021A6302
:101B30001B6B03F0040301938021019B0223CDE979
:101B400003130323079303A9E3E7114A9342E2D166
:101B5000002302930A4B0F481A6B42F002021A63E9
:101B60001B6B03F002030293029B4FF4804202239B
:101B7000CDE903230923079303A9CAE70000014025
:101B8000003802400000024000040140000802400A
:101B9000001800400004024010B5002492B01C223E
:101BA000214603A8CDE901440AF0B6FD21462022D2
:101BB0000AA80AF0B1FD2148214984604F23C0E9F9
:101BC000001340F2F313C0E90334C0E9054408F000
:101BD000F5F808B1FFF7A4FC2023184801A9CDE9C6
:101BE000013408F07BFA08B1FFF79AFC0024602268
:101BF000FA23CDE9032311480994224603A9CDE92C
:101C00000544CDE9074408F055F908B1FFF788FC11
:101C10004FF4005309480E940AA9CDE90A44CDE9CE
:101C20000C440F93119408F097FA08B1FFF778FC71
:101C30000248FFF74DFF12B010BD00BF5809002049
:101C40000000014010B5002492B01C22214603A8D8
:101C5000CDE901440AF060FD214620220AA80AF0DD
:101C60005BFD2148214984600123C0E9001306235C
:101C7000C0E9033480234461836108F09FF808B110
:101C8000FFF74EFC2023184801A9CDE9013408F0E4
:101C900025FA08B1FFF744FC602203230024CDE9B4
:101CA000032311480994042203A9CDE90544CDE991
:101CB000074408F0FFF808B1FFF732FC4FF4005377
:101CC00009480E940AA9CDE90A44CDE90C440F93C2
:101CD000119408F041FA08B1FFF722FC0248FFF71F
:101CE000F7FE12B010BD00BF580A002000040140EA
:101CF00000B589B01C22002101A80AF00DFD124890
:101D000012490623C0E9001305220023C0E902326C
:101D10000361836108F052F808B1FFF701FC60220B
:101D20000323CDE901230848002201A9039205926B
:101D300008F0C0F808B1FFF7F3FB0348FFF7C8FE4F
:101D400009B05DF804FB00BF9809002000180040AE
:101D50000B480C4A08B54FF4E133C0E900230023D7
:101D60000C22C0E90233C0E905230361C36108F016
:101D700097FA18B1BDE80840FFF7D2BB08BD00BF15
:101D8000580B00200010014070B5064688B01422A0
:101D9000002103A80AF0C0FC3268334B9A4260D19C
:101DA000002503F5943301955A6C42F010025A64F1
:101DB0005A6C02F010020192019A02951A6B42F0DD
:101DC00001021A631B6B03F001030293029B4FF4A1
:101DD000C0600223CDE9030303240723234803A99A
:101DE000CDE9064307F02EF8214CDFF890C0A5613D
:101DF0004FF00063C4E900C34FF48063C4E90435C5
:101E000020464FF48073C4E90255C4E90735656282
:101E100006F08EFE08B1FFF783FB164A7463A663D3
:101E2000154C4FF00063C4E90023402100234FF418
:101E300080622046C4E90213C4E90423C4E90633DE
:101E4000C4E9083306F074FE08B1FFF769FB346398
:101E5000252000220521A66306F000FE252006F0BD
:101E60002FFE08B070BD00BF00100140000002400E
:101E7000980A0020B8640240F80A0020406402403A
:101E800013B570B1046F64B1888B802809D0D1F884
:101E90002530009391F8243091F82320B1F82110D7
:101EA000A04702B010BD0000D0E90021837DC07DB5
:101EB00048B1527A13B90A701846704706489A42D8
:101EC00028BF002070471BB9087818B950727047B6
:101ED00002487047024870472400000802000106CB
:101EE00030000906C37D2BB1D0E900321B781168A0
:101EF0000B441360002070472DE9FF47DDF840A038
:101F0000DDF848900E469046DDE90D719DF83020D1
:101F10000446002860D0002E5ED0B8F1000F5BD0E0
:101F2000002B59D0052A57D9002F55D0002953D05E
:101F3000B9F1000F50D0BAF1000F4DD0036000F19D
:101F400055038365431DC0E9173300259DF83C30D8
:101F50000271C0E91A55A0F864500567C6E900711E
:101F6000306133727572F5602F4623685F55013515
:101F7000EBB29A42F9D81B4A334641F2030140467C
:101F8000CDE9007701F0D2FB174A08F5E96341F289
:101F900014014046CDE9007701F0C8FB134BBDF8B2
:101FA00044100097CDE9014380224FF4F06350467E
:101FB00003F032FC0823C6F81490BDF85020C9F88D
:101FC0001C40BDF84C10009305460197002348467D
:101FD00003F049FCB06108B94FF0FF35284604B062
:101FE000BDE8F087A91E0008E51E0008811E000854
:101FF000F0B438B10479B4EBD10F4FEAD10603D86D
:1020000080F86510F0BC7047076801F007040125EF
:10201000A540BC5D25425FFA85FCF3D111B144EACD
:102020000C04BC5590F864501DB1022380F8643054
:10203000E8E7C46D2280A570E1706360C36D826DB6
:1020400008339342C36504BF431DC365D0E917231A
:102050009A4204BF012380F86430836E002BD1D0F4
:10206000F0BCC06E184770B438B10379B3EBD10F30
:102070004FEAD10503D880F8651070BC7047066838
:10208000012301F0070403FA04F4735D2342F4D042
:1020900023EA0403735590F864401CB1022380F8CE
:1020A0006430EAE7C36D1C705C709C70D9705A6034
:1020B000C36D826D08339342C36504BF431DC3657E
:1020C000D0E917239A4204BF012380F86430836E5D
:1020D000002BD2D070BCC06E18472DE9F7430469BD
:1020E0000A9F0546642640695E438846914603F090
:1020F0006BFC94F8653043B14FF4C242282120466E
:10210000FFF776FF002384F86530236858799A78C2
:10211000003818BF01200AB9DA780AB140F010007F
:1021200021790533062208E013F801CFBCF1000F36
:1021300001D040F080000132D2B29142F4D82A6836
:10214000137803F06E0318431070EA68B2423CBF84
:102150004A44EA60B8F1000F5ED0AB695B7B002BAC
:102160005AD1D4E917329A4203D194F86430002B43
:1021700052D0EB68B34249D32B681B789370266F1B
:102180003EB1206EC37882780188406800900020BC
:10219000B047216EAA690B68C2F805304B68C2F8D7
:1021A0000930236EA26D53F8086B2366934204BF77
:1021B000631D23660023EB6094F8642084F8643088
:1021C000022A1DD14FF4805220212046FFF710FF34
:1021D0006C6874B16B7A2A7A9A4284BF01336B724D
:1021E0006A7A013AD2B292002146201D0AF07AFAA8
:1021F0002660D5E9050103B0BDE8F04303F050BB0C
:102200001A4620212046FFF72EFFE1E727B1F61AF4
:102210003B68B34288BF3E6003B0BDE8F08390B135
:102220000379B3EBD10F4FEAD1020BD90068012338
:1022300001F0070103FA01F1835C0B4214BF012096
:10224000002070470020704791F82030012B04BF18
:1022500091F82120C360036908BF42700BB1406947
:1022600018477047F0B585B000283FD090F80CC0F3
:102270008C453BD90BB1002A3BD13425866811FB34
:1022800005F5741972554FF47A756B43FF25657027
:1022900025760025A360E56072B36BB30123A370BC
:1022A000838A00951944164BCDE9014302F5E0629B
:1022B000006940F2FF7389B203F0AEFA05B0F0BDD9
:1022C000456855F82450B9421FFA85FE08D0BEF182
:1022D000000F05D0C5F30745AA4208BF4FF0FF36EF
:1022E0000134E7B2BC45EBD8002EC6D04FF0FF302A
:1022F000E4E700242646F4E7A560A5700020DDE7AA
:10230000492200082DE9F3470A9D174604460C9A16
:10231000002847D0002945D0002F43D0002B41D0C2
:10232000002D3FD0002A3DD0C0E900139DF82C308D
:102330000373FF230026C381BDF8343085604673E4
:1023400002618382866135464FF03409B046237BB3
:102350005FFA86FA53450DD80023CDE90033134ABE
:10236000234641F21601384601F0E0F9284602B052
:10237000BDE8F087636853F82A20514693B220469F
:10238000C2F30742FFF76EFFA36809FB0A31054657
:10239000C1F81080C1F81C80C1F82480C1F82C80DD
:1023A0000136D4E74FF0FF35E0E700BFB123000866
:1023B00008B5C37D0BB1002008BD43681A68D30D72
:1023C000DB0553B9817D0068013993B2C9B2C2F30C
:1023D0000742FFF747FF0028EDD00148ECE700BFB8
:1023E0004300040610B540B1047B8C4281BF806875
:1023F000342401FB0401C1E9073210BD10B540B11E
:10240000047B8C4281BF8068342401FB0401C1E954
:10241000093210BD2DE9F74F98468468C37B0091BF
:1024200005469346002900F08D80002B40F0858002
:102430000023297B1E46FF220127D8B28842C0F024
:102440008780FF27002664E0A378002B5AD0E2683B
:10245000002A3AD094F9012052BBE36A1BB1226BE7
:10246000207849469847A378022B06D128684B4626
:1024700048F230121C21FFF7BBFD0123A3705B461D
:102480000022E260A278022A10D162681344A26896
:10249000636093421BD3636A1BB1A26A20784946EA
:1024A00098474FF0FF3363700323A370002618E0B2
:1024B000022B05D0E3691BB1226A20784946984770
:1024C0000223A37000236360DAE75B46DAE7B8F122
:1024D000000F06D0D31AD8F800209A4288BFC8F857
:1024E000003094F9011094F91830052918BFFF271E
:1024F0008B4206D0AB6913B1EA69207898476378BC
:10250000237634340AF1010A2B7B5FFA8AF94B45B2
:102510009AD86A7B52B94EB1286801921B21FFF705
:10252000A2FD019A28681C21FFF79DFD009B6E7398
:10253000AF73EB7303B0BDE8F08F4FF0000A0527CF
:102540000126E1E7002B7FF473AF05270126E0E7C2
:10255000A07862702276E66000B1A770343401334F
:102560006BE791F82030022B2DD191F8223013B176
:10257000C27B9A4227D191F8213090F90C20802B10
:102580001CD00BD8012B0FD0022B15D0436AD3B12E
:1025900090F90C10914216D0806A1847812B0FD009
:1025A000822BF3D101230CE083691B681B78002B7D
:1025B000ECD105230373E9E70423FBE77F23F9E765
:1025C00002238373E2E77047F0B585B004460A9EA4
:1025D000109F78B371B36EB367B3C2734FF47A725E
:1025E00053434361164B8360164B81610025C0E95C
:1025F0000055C0E90955858185730561C562BDF83F
:102600003020BDF82C100095CDE9010340F2FF7396
:10261000304603F001F90123E761BDF8482000933B
:10262000BDF84410019506462B46384603F01BF9C9
:10263000206208B94FF0FF36304605B0F0BD00BF4C
:102640000000FF016325000808B1C0E909217047B7
:1026500020B1C16211B190F90C00084770472DE913
:10266000F84F9946036990F90CA09DF828704FF433
:102670007A750B44DDE90B8604468B4655430361AE
:10268000BAF1000F06D0DDB1AB4203D290F90D30A4
:10269000534515D0216A0023236181F805A0E06924
:1026A00003F0FEF894F90C3053B96269AA423CBFBA
:1026B000AA1A2261B9F1080F0CBF05237F232373E7
:1026C000237B6373A36907211869FFF7A8FD00281E
:1026D00044D1A36906211869FFF7A1FDB0F10009F3
:1026E00018BF4FF0010923680BEB03014CF24F3385
:1026F000994236D8216094F90C30052B00F0A58062
:102700007F2B00F0A080042B01D1A379A372A369D1
:1027100012211869FFF783FD002800F0988001233B
:10272000E372B8F1000F00F00E8194F90C30052B24
:1027300040F00981B9F1000F00F0B78098F802303D
:1027400013F0FD0F40F0B18047F0100798F801300A
:10275000002B40F0C7807F232373ABE04FF00109CB
:10276000C1E7A1F54343503B236036B13268C3F55E
:10277000434350339A4288BF3360237901335BB2BD
:10278000002BC8BFFF232371637901335BB2032B96
:10279000C8BFFC236371A37901335BB2032BC8BFAD
:1027A000EC23A371E37901335BB2042B23D0682BB4
:1027B00025D013F1640F20D0E371237A01335BB28B
:1027C000042B24D01DDC13F16E0F26D013F1640FFF
:1027D0001FD02372637A01335BB2042B27D01EDC37
:1027E00013F16E0F27D013F1640F22D013F1780F7D
:1027F00025D063727FE79823DEE76423DCE7EC23D0
:10280000DAE7682B07D0722BE3D1EC23E1E79823BA
:10281000DFE76423DDE78E23DBE76E23D9E7722B46
:102820000BD07C2B0DD0682BE3D18E23E1E79823CE
:10283000DFE76423DDE76E23DBE78423D9E7782332
:10284000D7E7EC23D5E7637960E701235EE7A36967
:1028500018211869FFF7E3FC08B1237A60E7A36940
:102860001B211869FFF7DBFC08B1E37958E7A3697E
:102870001C211869FFF7D3FC0028F6D1B9F1000F2D
:1028800001D0A3794CE7A36901211869FFF7C7FCC0
:102890000028F6D13FB194F90530002BACBF4FF0C2
:1028A000FF3301233CE7FF233AE7002F4BD0F80624
:1028B0003FF54CAFF90705D598F80330002B32D11E
:1028C0007F232373BA0604D598F804307BBB7F239B
:1028D00023733B0633D598F8053063BB7F232373FE
:1028E000256130E0022B01D1042335E7A3691221D1
:1028F0001869FFF794FC38B198F80030002B3FF4CA
:102900002AAF022BD6D1EFE7A3691B211869FFF785
:1029100086FC0028F0D1A3691C211869FFF77FFC11
:102920000028E9D1C6E7022BCCD10423C9E7022B4A
:10293000CFD10423CCE7022B01D10423CFE794F9B4
:102940000C30052BCCD194F90C0050450CD0E36A27
:1029500003B198475EB10023336045B12269AA42B2
:1029600008D30023336002E00DB1002EF6D1A07B26
:10297000BDE8F88F3368AD1AAB42F8D93560F6E799
:102980002DE9F74F9A464B071446DDE90C67804660
:10299000CAB203D03C4803B0BDE8F08F337803EBF4
:1029A000D203DBB2082B4FEAD209337068D80A0C85
:1029B000B1F5002F1346C1F307251AD2CDB9012A6C
:1029C00009D9022A0FD0052A0DD0032A0DD0062AD4
:1029D0000CBF022504254D45DCD344B92B4BCAF866
:1029E00000300020D7E70125F5E70225F3E7284B63
:1029F000F5E71946404600F06BFE4FF6FF7398422C
:102A000001463FD0D8F814370C2202FB00339B78E4
:102A1000AB4237D301902A46404600F067FF019948
:102A20005FFA80FB44BB0BF01803182BB2D12A4687
:102A30004046019100F038FFC0B28145AAD80E9BF4
:102A400001994FEADB121A7040462A4600F075FFE2
:102A50001BF0400FCAF80000C3D033780121A3EB6C
:102A6000090332789342BCDA3A7801FA03F0024360
:102A700001333A701BB2F4E70BF02403242BD5E7A3
:102A8000044888E7044886E741000406980B0020C4
:102A90009C0B002042000406000002062DE9F047CE
:102AA000C76888B04FF0000806468DF819800437D3
:102AB0000C460DF11B099DF819500CB9A2461DE0FA
:102AC0008DF81A800DF11A0357F8041B01930DF1CC
:102AD000190300937068CDF8089007AB00220591A8
:102AE000FFF74EFF0599824678B10B4630688DF8A6
:102AF00019804FF402421A21FFF77AFA9DF8193033
:102B0000B376504608B0BDE8F0879DF81910079AD3
:102B10002BB28B42104602F1010202DB013C24B2CF
:102B2000C9E706EB83050133E8611BB2F1E700005A
:102B30007FB502460068D37D53B1937D002B33D11E
:102B4000807E002830D15368187007B05DF804FB10
:102B5000037E19072AD4016991F90010052901D1D2
:102B60009B0725D4437E2BBB5168927D3AB90978E7
:102B7000082921D807B05DF804EBFFF78FBF827EEC
:102B800009688DF811308DF812309AB90DF11303E0
:102B900002930DF1120301930DF1110300934068AC
:102BA00005ABFFF7EDFED0E70020CEE70348CCE70A
:102BB0000348CAE70348C8E70348C6E7020001061E
:102BC0002200000800000106420004062DE9F0473B
:102BD0008046C76888B0002308F8443F04468DF853
:102BE0001A3004370D460DF11B099DF81A600DB916
:102BF000AA4619E00DF11A0357F8041B6068009308
:102C0000CDE9018907AB01220591FFF7B9FE0599CE
:102C1000824680B100238DF81A3020680B464FF4AD
:102C200002421A21FFF7E4F99DF81A30A3765046C4
:102C300008B0BDE8F0879DF81A10079A33B28B42AE
:102C4000104602F1010202DB013D2DB2CDE704EB9B
:102C500083060133F0611BB2F1E700007FB5024645
:102C60000068D37D53B1937D002B34D1807E002842
:102C700031D15368187007B05DF804FB037E190763
:102C80002BD4016991F90010052901D19B0726D4A5
:102C9000437E33BB5168927D3AB90978082922D81E
:102CA00007B05DF804EBFFF791BF09688DF81130AC
:102CB0008DF81230837EA3B90DF1130302930DF149
:102CC000120301930DF111030093012205AB40683B
:102CD000FFF756FECFE70020CDE70448CBE70448D6
:102CE000C9E70448C7E70448C5E700BF020001067A
:102CF00022000008000001064200040630B5194B0E
:102D00000B4085B004463BBB837E2BB38AB21AB31B
:102D1000C38A93424FF001034376836808BF017D65
:102D20001B7A04BF521892B2F02B8CBF00230123F0
:102D300080F840300C4BB4F86810606E0025CDE987
:102D40000143009540F2FF7302F066FD10B1C4E943
:102D50001155657605B030BD0022C4E911226276B6
:102D6000E8E700BF00F8FFBF392E000870B5034642
:102D70000068DA7DA2B19A7D012A02D000242046A3
:102D800070BD5A68C48A136899B2A14202D109B1D0
:102D9000017D0B44417E09B943F000431360EDE728
:102DA000027E51073BD4016991F90010052901D138
:102DB000D20736D49A7D012A1BD15D681A4C296846
:102DC0000C400CB1194CDAE7C68A037D8AB2334451
:102DD0009A4202BF01F0404189192960437E2BB11C
:102DE00083685B684B4033F04043EBD1FFF786FFCD
:102DF000C5E7022AC2D15B681B7803F10F02D2B289
:102E00000C2ADFD9F02B90F840208CBF002301233F
:102E1000934280F84030B1D000248464AFE7044C82
:102E2000ADE7044CABE700BF0080FF3F3000090670
:102E3000020001062200000830B4437E33B3036968
:102E400093F90030052B21D1827E91F820309A42EF
:102E50001CD8C26BC2B190F840301BB1137F003B4D
:102E600018BF0123DA004C32D1F821408450851874
:102E7000D1F825406C6000EB830301225A64C36DD6
:102E800023B130BC006E18471346EBE730BC7047E7
:102E900013B51346104A0A400446807EBAB9B0B151
:102EA0008AB2A2B1E18A914202BF217D89188AB219
:102EB00001216176CDE90003B4F85410E06C0023E1
:102EC00002F0D1FC206500B9607602B010BD00218F
:102ED00061760A46EEE700BF00F8FFBF70B5837D5C
:102EE0000568042B6DD0C27D8AB1012B0DD14268DB
:102EF000E88A136899B2814202D109B1297D0B4455
:102F0000697E09B943F00043136000242BE02A7E58
:102F1000510758D4296991F90010052901D1D20728
:102F200053D4012B21D14068294C01680C40002C5E
:102F300045D1EE8A2B7D8AB233449A4202BF01F01A
:102F40004041891901606B7E2BB1AB685B684B40D7
:102F500033F0404333D12B6D28469A7BFFF798FF1F
:102F6000FF2385F84530204670BD022B10D1436801
:102F70001B7803F10F02D2B20C2A20D9F02B2A6D54
:102F80008CBF002301239373FF2385F84530BCE7F2
:102F9000032B03D16C7E94B9EC63E4E7052B06D1D7
:102FA00043681B884FF47A7253432B64ADE7062BBA
:102FB000ABD16C7E1CB943681B78F02BD3D9054C80
:102FC000D1E7054CCFE7054CCDE7054CCBE700BF7B
:102FD0000080FF3F300009061100090602000106CB
:102FE000220000082DE9F743DDF848901646DDE998
:102FF0000E780A9A0446002846D0002944D0002EB4
:1030000042D0002A40D0002F3ED0B8F1000F3BD074
:10301000B9F1000F38D0C3639DF82C300375BDF8AB
:103020003030C38200259DF834300261C0E90016BB
:103030000376C0E90278C0E917550346144ABDF883
:1030400040103046CDE9005500F070FB114ABDF844
:10305000441023463046CDE9005500F067FBC4E933
:103060001155BDF84C30A4F86830C4F8649098F855
:1030700000102046FFF712FD20467968FFF73EFE5C
:10308000284603B0BDE8F0834FF0FF30F9E700BFFA
:103090006D2D0008312B00082DE9F743DDF848902D
:1030A0001646DDE90E580A9A0446002860D0002929
:1030B0005ED0002E5CD0002A5AD0002D58D0B8F136
:1030C000000F55D0B9F1000F52D083649DF82C3019
:1030D0000375BDF83030C38200279DF8343002619B
:1030E000C0E900160376C0E902580346224ABDF83B
:1030F00040103046CDE9007700F018FB1F4ABDF8BC
:10310000441023463046CDE9007700F00FFBBDF8B0
:103110004C30A4F85430EB89C4F84C904FF47A72D8
:103120005343E76323642B7AFD2B84BF0123E376AB
:1031300098F800102046FFF749FDFF2384F845303A
:103140002A7A6968F02A8CBF002201222046FFF704
:103150009FFE2B7A0F33DBB20C2B4FF0000002D90D
:103160002B7CF02B01D96076002003B0BDE8F08302
:103170004FF0FF30F9E700BFDD2E00085D2C00089E
:1031800070B5817E026D4B1D1344CA1D013900EBE1
:10319000820207297BD8DFE801F06577743C712251
:1031A000130452F8045C591E141F13F8012C2B78D9
:1031B0009A4207D090F94430002B03DA01205CE0FA
:1031C0001446194654F8045C4B1E221F11F8014C9A
:1031D00029788C4203D090F844104E06EED452F871
:1031E000045C591E141F13F8012C2B789A4203D04B
:1031F00090F844309D06E1D454F8045C4B1E221F25
:1032000011F8014C29788C4203D090F84410C9067B
:10321000D4D452F8041C5D1E161F13F8012C0B7831
:103220009A4203D090F844301B07C7D456F8043CA8
:1032300015F8012C1B789A4205F1FF31A6F1040420
:1032400003D090F844305D07B8D454F8045C4B1EAA
:10325000221F11F8014C29788C4203D090F84410B9
:103260008907ABD452F8041C13F8012C0B789A424E
:103270000DD090F8440000F0010070BD14461946CE
:10328000BAE716461D46D1E714461946DDE7002089
:10329000F3E72DE9F04F4768D7F81C378DB00446A7
:1032A0007BB9226DA37E053204F11C01002B5BD19A
:1032B000D4E91301E37602F0F3FA00B20DB0BDE8F1
:1032C000F08FD0F80C8018F8043B0093009B002B83
:1032D000E7D058F8046B4FEA164B5946384600F0D1
:1032E000F7F94FF6FF739842054639D00C23D7F80B
:1032F0001CA703FB00F90AEB09035AF80920019304
:1033000072B32422002103A809F006FAC6F30726A7
:10331000019B8DF8226001228DF823205B680393C6
:10332000324629463846ADF820B000F0DFFA324682
:10333000ADF81A002946384600F020FB32460790C7
:103340002946384600F0F9FA3246049029463846B4
:1033500000F0AAFA5AF80930ADF8180003A8984707
:10336000009B013B1BB2B0E751F8040B013B007816
:1033700002F8010B1BB299E72DE9F04F90F84030AD
:103380008DB07BB1003918BF0121427E22B10269A4
:1033900092F90020052A07D00023C0E911330DB0AF
:1033A000BDE8F08F0121F0E70029F8D0C26B002AB8
:1033B00076D01BB1137FB3FA83F35B0903F10902E3
:1033C000D2B2D200002400EB83032746033207E089
:1033D000847E5F6400F11C058618002C57D10C46D2
:1033E0005D6C002DF4D1002CD9D04668D6F81C377E
:1033F000002BD4D0D0F80C8018F8047B002FCED04E
:1034000058F8045B4FEA154B5946304600F060F916
:103410004FF6FF739842044636D00C23D6F81CA70B
:1034200003FB00F90AEB09035AF8092001935AB388
:103430002422002103A809F06FF9C5F30725019B99
:103440008DF822505B6803932A4621463046ADF83A
:1034500020B000F04BFA2A46ADF81A00214630465B
:1034600000F08CFA2A4607902146304600F065FAB3
:103470002A4604902146304600F016FA5AF80930E0
:10348000ADF8180003A89847013F3FB2B6E755F8DA
:1034900004CB16F801EF8CF800E0013C24B29CE765
:1034A00013468BE7F8B5C66B1D46036C96428CBF7E
:1034B000B61A0026934204468CBF9B1A0023C663AB
:1034C0000364677E8068027A002F58D0276997F9D5
:1034D0000070052F53D1FC2A20D9A6B9E27E22B96B
:1034E000C289002A51D0002B58D12046FFF7D1FEC7
:1034F00048B9A268538964214B43E363D3894FF4ED
:103500007A7253432364002D47D0E37E002B3DD0D5
:10351000E36B2A689A4239D92B603EE0A56C002DF6
:103520003BD0002939D03AB9E37E002B35D0204674
:10353000BDE8F840FFF7ADBE94F84530FF2B06D14B
:103540002B7D7BB1037C6BB1FE2384F8453094F86E
:103550004530FE2B09D1697F037C99421DD184F847
:1035600045201AE084F84520F1E7013B13F0FF0302
:1035700002D084F8453010E084F84520D7E7FD2AD2
:103580008CBF01230023E37607E035B1A368DB8914
:103590001BB1236C2A689A42BED8F8BD002DF8D121
:1035A000FBE730B491F82030082B6CD1D0F85C27C1
:1035B000002A68D190F8494791F821300370A52C72
:1035C0001FD091F82230437091F82330837091F826
:1035D0002430C37091F82530037191F8263043717F
:1035E00091F82730837191F82830C3710123C0F816
:1035F0005C37D0F86037002B45D030BCD0F864077A
:10360000184790F85947C0F8502703F07F030CB1D2
:1036100080F8592790F84A27541CA3422AD180F8F1
:103620004A3701F121032831B0F82027D0F8284784
:10363000551CA0F8205713F8015FA554B0F82027B7
:10364000B2F5E16F13D3A62380F849370123C0F800
:103650005C3790F90030002B05DB90F84A2790F892
:1036600054379A420BD3A62380F84937BEE79942D4
:10367000DAD1EEE79A4206D02AB1A723F4E7D0F8D0
:103680005C37002BB5D130BC7047C37D3BB1837D27
:103690002BB1D0E900321B7811680B441360002075
:1036A0007047D0F86C3780225A71B0F83827DA802A
:1036B00090F83A271A72C3F809100023D0F86C1753
:1036C00080F84937C0F85C37D0F8680702F0E8B8EE
:1036D000B0F81827013AF0B592B2054600240C273D
:1036E000944214D2A3185E10C3F34F0007FB06FCEC
:1036F000D5F8143733F80C308B4213D003D92EB1E0
:10370000421E92B2ECE7431C9CB2E9E7B4420AD1F4
:103710000C23D5F8142763434FF6FF70D35A8B421E
:1037200008BF2046F0BD4FF6FF70FBE72DE9F843D8
:103730001E4605469046FFF7CBFF4FF6FF739842B3
:10374000089F9DF824901BD0D5F81C27D5F8143776
:103750000C21414354180B44987842F8018066606C
:1037600087B1B9F1000F0DD048450BD10023A760F8
:10377000194680B2A268D15401339AB29042F9D26C
:10378000BDE8F8830023A360FAE700002DE9FF47B6
:103790000C9D0F9FDDF848A0DDF850908846164636
:1037A0001946BDF83820044600285DD0BAF1000F54
:1037B0005AD0B9F1000F57D0002D61D1012380F804
:1037C00010370D9BC0F81437A0F81827C0F81C77E5
:1037D0002B463846AFB2BA4200F10C004AD89DF8E9
:1037E000403084F84837BDF844304FF47A72534380
:1037F000B1F5905F4FF00002C4F84C3784F84927C8
:10380000C4F85C27C4F86027C4F8642707D1CDE961
:10381000002204F5E963224A2046FFF787FFB8F14A
:10382000000F01DB002E01DA0026B0461D4BBDF86B
:103830004C100027CDE901431FFA88F240F2FF73D4
:103840000097504601F0E8FF0823C4F86897BDF8D8
:1038500054100093054601973B46B2B2484602F029
:1038600002F8C4F86C0708B94FF0FF35284604B0D9
:10387000BDE8F08740E9033340F8043C0135A9E78F
:10388000002380F81037D5F81437C0F81437B5F88E
:103890001837A0F81837D5F81C37C0F81C379EE742
:1038A0008B360008A3350008D0F814370C2000FB35
:1038B00001334FF6FF70814213D0997819B99A6895
:1038C0008AB1D8887047998819B1002AF7D10120A8
:1038D00070479B6803EBC20153F832301BB1C888B4
:1038E0007047002070474FF4E160704730B50C23FB
:1038F000D0F814574FF6FF704B43814205EB030499
:1039000011D0A178A08841B140B1E95A41F2030336
:1039100099420AD10AB940F0080030BDA36803EB10
:10392000C2029088F9E70020F7E7002AF5D120F0DD
:10393000180080B240F00400EFE7D0F814370C20F4
:1039400000FB01334FF6FF70814215D0997809B919
:103950009868704791420FD3998849B10AB9981C69
:103960007047986848B1DB88013A03FB0200704752
:103970009B6853F832007047002070474FF6FF7382
:10398000994209D0D0F81C0738B10C2303FB010081
:10399000806810B11044704700207047F7B5A0F858
:1039A000381780F83A2704461546FFF791FE4FF680
:1039B000FF7398420146A4F822074DD00C2303FB65
:1039C00000F6D4F8143733449A78AA4202D29B689E
:1039D000002B43D12A4620460191FFF7AEFF00237A
:1039E000C4F82437D4F81C370199C4F82C070746CB
:1039F0001BB133445B68C4F8243704F10803C4F8EE
:103A000028372A4620460191FFF74EFF0199A4F876
:103A1000300706462A462046FFF768FF0199A4F8BA
:103A200032072A462046FFF7A9FF40F20113002F74
:103A3000A4F83C3714BF33460023C4F84037B6F52A
:103A4000E16F4FF00003C4F83407C4F8443704486A
:103A500098BF184603B0F0BD0248FBE70248F9E7FB
:103A6000470004060000020611000906B0F83237CC
:103A70005B0770B504460D4638D5D0F81C3723B126
:103A8000B0F822270C2101FB0233D4F82C27E2B135
:103A9000D4F82807B4F83017013811448A420FD1FE
:103AA000012284F83B271B68A3B9D4F84437B4F843
:103AB000302700201344C4F8443784F83C0708E05A
:103AC00012F8016B00F8016FE8E71A68002AE7D1E5
:103AD000074870BD04F2247098470028F9D1B4F863
:103AE0003037002BF4D0AB42DFD9F1E70148F0E7E3
:103AF0004700040601000106F8B5B0F832371B078D
:103B000004460D463AD5D0F82C67D0F82877DEB9B0
:103B1000A0F83017D4F81C27002384F83B37CAB923
:103B2000B4F83027D4F844371344C4F8443700239A
:103B300084F83C37D4F8383741F2030223F07F434E
:103B400093421DD1002011E0B0F830378B42E1D014
:103B50000E480BE0B4F822370C214B43D358002B0E
:103B6000DED004F2247098470028D9D0F8BD17F8A9
:103B7000013B06F8013FAF42F9D1E3E70448F5E71E
:103B8000002EDFD0013E3D44F5E700BF10000706E0
:103B9000020001062DE9F041164690F84927044637
:103BA0001D462AB9D0F85C3713B90020BDE8F08172
:103BB00021B984F84917C4F85C17F6E7D4F86C0704
:103BC000417B01F0FF03002940F0C780D4F85C7707
:103BD0000FB9B62A39D10023B62A21781CBFC4F800
:103BE00050371E464371C3808360037347B18029F9
:103BF00006D184F84937C4F85C374FF0FF30D5E779
:103C0000002A40F0AC804F09C1F34111013901296C
:103C100004D9BA492046FFF744FDEEE7B4F8011095
:103C2000E2782046FFF7BAFE01460028F2D1012FC4
:103C300001D0062F7ED1B4F832371A0701D4B0492B
:103C4000E8E7012F0CBFA123A423D4F85027D4F810
:103C50004C178A423CBF9219C4F85027D4F8502719
:103C6000914200F2828094F84937A52B7BD194F8D9
:103C70005937002B77D1D4F86C375B7B03F0FF0208
:103C8000002B70D1012384F85937C4F85027A7239B
:103C900094F85927002A40F0A18194F90050ED0FC3
:103CA000D4F86C27A2215171A62B94F84A17917170
:103CB00004BF002384F84A37D4F82C37FBB9B4F892
:103CC0002017E1B1DDB994F855373BB1B4F8562768
:103CD000D4F8280700F038FEA4F856070023B4F8FB
:103CE000201784F83D372046FFF706FF01460028DD
:103CF00090D14FF4E163A4F83037A4F82007B4F86A
:103D00002027C2F5E1639BB240F279318B429CBF20
:103D10000721B3FBF1F3D4F86C1794BFDBB27F2318
:103D200084F85437CB71002D00F05A81A82384F811
:103D300049371EE14FF4E1612046FFF797FE014647
:103D400000287FF467AF052F0BD1B4F830276379D3
:103D50009A4294BFB123B42377E7002375E7134653
:103D600073E7B12371E7674954E725B1891A2A68D7
:103D70008A4288BF2960002B3FF417AFA3F1A1024C
:103D8000162A00F2308101A151F822F0E93D000825
:103D90009F3E0008E73F0008773F00086D44000899
:103DA000913C0008913C0008EF3F0008E73F000805
:103DB000E73F0008E73F0008E73F0008E73F00084B
:103DC000E73F0008E73F0008E73F00084F400008D2
:103DD000BF400008E73F0008D741000859420008EB
:103DE0007D4200084B440008D4F86C3760225A71B9
:103DF00062789A71A278DA71E2781A72217811F0F9
:103E0000020F01F0010334D083B3C1F38101C1F18A
:103E1000040189B2D4F8283722791A70D4F82837E7
:103E200062795A70D4F82837A2799A70D4F8283772
:103E3000E279DA702046FFF75FFE014600287FF442
:103E4000E9AE84F84917002D00F0938000232B6021
:103E5000D4F86C17D4F86807C4F85C3701F020FD7B
:103E600094F84907003818BF01209FE6B4F83017CE
:103E7000D0E75BB16368B4F83027C4F840379A42A2
:103E800004D0D4F82C370BB11F49C3E60023A4F8A3
:103E9000203784F84A37A22284F84927D8E72378C4
:103EA00013F0E00F7FF4B5AE94F84A17C3F3001295
:103EB000914201D01549ADE66FEA5303B4F82017DB
:103EC00003F00706B4F830378A199A4213DDD4F8A4
:103ED0002C370BB10E499DE684F83D372046FFF79D
:103EE0000BFE014600287FF495AE4FF4E163A4F881
:103EF0003037A4F82007621C002316E001000405F7
:103F0000020001060000040510000706000003057A
:103F100012000706B4F82017D4F828074F1CA4F89D
:103F2000207712F8017B4754013399B28E42F1D8C1
:103F30002378D8070FD50123B4F8201784F83D372C
:103F40002046FFF7D9FD014600287FF463AE84F8D0
:103F5000490705B1286094F84A37002BD4F86C372C
:103F600014BF302220225A710CBF0123002384F891
:103F70004A3700236CE7227802F0E103C02B7FF47C
:103F800048AED4F86C37A421597161789971A17841
:103F9000D971E17819727F2184F854175972C2F3EC
:103FA000800384F8553791074FF00003A4F8563783
:103FB0000BD56368B4F83027C4F840379A4204D070
:103FC000D4F82C37002B7FF45FAF0023A4F8203700
:103FD00084F84A3784F85937A5225DE700255FE663
:103FE000B2F5E16F01D3BB4914E6A5239FE6217822
:103FF00001F0E103C12B7FF40CAEC1F38203B4F8EE
:104000002017C91A94F8553789B2A4F820176BB154
:10401000B4F85627D4F8280700F096FCB4F801301D
:10402000A4F85607834201D0AB49F3E50123B4F865
:10403000201784F83D372046FFF75EFD0146002833
:104040007FF4E8ADD4F86C37A1225A71F9E6D4F8C0
:104050006C1763788B71A378CB71E3780B72B4F82B
:104060003037042B4FF0000215D801F1090096B249
:10407000B34209D8C3F104039B0043F043034B71DF
:10408000002384F84937DEE6D4F82867B65C00F8E8
:10409000016B0132EBE7B22384F84937D4F840379B
:1040A000A4F8202784F84A2733B1C1F80930D4F89E
:1040B0006C3741225A715CE740234B7159E72378F2
:1040C00003F0E002602A7FF4A4AD1B09063B94F8DC
:1040D0004A2718BF01239A427FF4ECAEB4F8202798
:1040E000B4F830379B1A9BB2D4F82C27072B1E4606
:1040F00028BF072622B9062B02D894F83D279AB389
:10410000D4F86C1700239AB29642B4F8200758D816
:1041100094F84A37002B14BF10220022C6F107037F
:1041200042EA4303DBB20CBF012200224B7184F848
:104130004A27B4F8302782427FF41BAF94F83D271A
:10414000002A3FF416AF43F001034B71002384F8BB
:104150004937002D3FF40DAF2B600AE7B4F8201764
:104160009818415C9954013291B28E42D4F82837A4
:10417000F4D83344B4F8221794F83A27C4F828370F
:104180002046FFF791FB801BA4F830074FF4E16154
:104190002046FFF76BFC014600287FF43BADD4F8C6
:1041A0002837A4F820079B1BC4F82837B4F8303709
:1041B00033449BB2072BA4F8303728BF07231E4691
:1041C0009EE7D4F82827471CA4F820770133105C19
:1041D000CA18507197E7D4F86C3762789A71A27850
:1041E000DA71E2781A72237813F0040320D00123E5
:1041F000B4F83017D4F8280784F85537002200F0B7
:10420000A3FBA4F856072278237984F85437920741
:104210007FF4FFAC5AB2002A08DDB4F83027C3EBB4
:10422000C303934209D994F83D3733B92B49F1E4DC
:1042300084F85537A4F85637E5E7D4F84027D4F882
:104240006C373AB1C3F80920D4F86C37C6225A71DA
:10425000B5236CE5C422FAE7237803F0E303A32B2C
:104260007FF4D7AC0023A4F8203784F84A3784F8C9
:104270005A37C4F85C37B62384F84937D4F85C372A
:10428000002B00F09280237803F0E303A22B7FF44D
:10429000C0AC667894F84A37B34201D21049B9E409
:1042A00094F85A37F3B194F85437B3421AD194F8CA
:1042B0005837D4F86C27C3F107039B0063F03E0323
:1042C000537194F8553713B1B4F85637D380B723E8
:1042D0002DE500BF470004060400040502000405A4
:1042E00003000405C6EBC606B6B23346B4F8308701
:1042F0009A1B984592B261D8A8EB0603D4F82C27F4
:104300009FB2A378A4F8307784F85437BABBC3EBD4
:10431000C3039F4240D294F83D37EBBBD4F8283713
:10432000B4F8221794F83A273B44C4F828372046BB
:10433000FFF7BAFAA6EB080606444FF4E161A4F8C9
:1043400030672046FFF792FB014600287FF462ACFD
:1043500094F855374BB1B4F85627B4F83017D4F861
:10436000280700F0F1FAA4F85607D4F82837DB1B29
:10437000C4F82837B4F830373B44A4F8303794F801
:104380005437B4F83027C3EBC303934204D994F8ED
:104390003D37002B3FF44AAF0023A4F8203784F8C0
:1043A0004A3784F85A37C4F85C3794F84A3794F897
:1043B00054279A4209D10120FFF7F8BBD4F82817F7
:1043C000C85C885401339BB290E794F85A070028E0
:1043D000F1D1B4F83067B4F82027D4F86C17C4F8DA
:1043E0005007B21A92B2072A28BF072287B2BA42F0
:1043F000B4F820C71CD80133DBB2664584F84A37CD
:104400004B710CD194F83D0748B163F07F004871BF
:1044100084F85437012384F8582784F85A37D4F89D
:10442000680701F03DFA002DC5D000232B60C2E7DC
:10443000D4F828770CF1010EA4F820E7013017F822
:104440000CC00F1887F805C0D0E7237803F0E1030C
:10445000A12B7FF4DEAB002384F849371DB12B601C
:10446000C4F85C37FCE4C4F85C57F9E40023F7E7D0
:10447000C37DABB9D0E90032D968126809B902B17D
:10448000597722F0010101EB52019142DA603CBF01
:104490004FF0FF321A614FF0000228BF19611A6213
:1044A0000020704713B5C37D13B1002002B010BDCA
:1044B0000468E368A3B942681078012812D0F02894
:1044C00010D82075003818BF01206289B4F8401058
:1044D00001930090A06B01F0C6F9E0630028E4D1DD
:1044E0000148E3E70148E1E722000008300009063F
:1044F0001FB5C37D13B1002004B010BD426812681F
:1045000094002DD45100046802D5237AABB901235D
:10451000C2F30A0262819BB1207D18B1002161774C
:10452000216218460023B4F84010CDE90003A06BC7
:1045300001F099F9E06310B920720A48DCE7012321
:104540002372094B6289A18ECDE9014300230093B8
:10455000206B40F2FF7301F05FF90028CBD0ECE74D
:104560000248C9E72200000871450008300009062A
:10457000436893F90030052B01D07F2B15D1027DC4
:1045800091F8203092B953B901238361037FB3FAC4
:1045900083F35B090377836A3BB1C06A184743F42E
:1045A000807383848369002BF0D17047012B03D182
:1045B00091F821204277E8E743F40073F1E7000027
:1045C0002DE9F04F85B016469DF84070DDF844A007
:1045D000BDF848B0DDF84C80BDF85090DDE90E25FF
:1045E0000446002863D0002961D0002E5FD0002B44
:1045F0005DD0BAF1000F5AD0B8F1000F57D0C2F316
:104600008070C2F30A02628125F0010202EB5502BA
:10461000AA4238BF4FF0FF32E56022610025012237
:10462000C4E900132072277562753046C4E90A5543
:10463000224A2562A561A583A584C4F830A0A4F808
:1046400034B0234641F20501CDE90055FFF76EF87D
:1046500030461B4A234641F20601CDE90055FFF7DB
:1046600065F83046174A234641F21901CDE9005555
:10467000FFF75CF8144B0095CDE901435946628978
:1046800040F2FF73504601F0C7F87F1B18BF0127A7
:10469000C4F83880A4F840900195009762890646D6
:1046A0002B464946404601F0DEF8E06308B94FF07A
:1046B000FF36304605B0BDE8F08F00BFF14400087A
:1046C00071440008A544000871450008F8B51E466D
:1046D000436893F90030052B0446174601D07F2B21
:1046E00061D1236AA56919448B4238BF2162002336
:1046F00015B12362A3610125237A1BB3E3680BB3D1
:10470000226A9A4216D3637F227DE16B0133DBB2CA
:104710009A4263773CBF0123637700232362237FA0
:10472000B3FA83F35B092377637F4B71A06B01F0CE
:10473000B7F8012536B1226AE3689B1A32689A42BB
:1047400088BF33602FB3236ABB4222D9637D002B1D
:1047500018BF022500236375E36873B1636893F99A
:104760000030052B09D1236A2269934213D92068AE
:104770004FF401421821FDF73BFCA38C3BB12068AC
:1047800048F240221921FDF733FC0023A384284678
:10479000F8BD0123DFE7002EEFD0D21A3368934231
:1047A000EBD93260E9E700258561E6E710B543689B
:1047B00091F8202093F90030052B044601D07F2B7F
:1047C0000CD1213104F1400007F07EFF0123636129
:1047D000236A23B1606ABDE810401847828310BD88
:1047E0002DE9F04385B0DDE90C67DDF838C0BDF890
:1047F0003CE0DDF84080BDF844900446002849D0F4
:10480000002947D0002A45D0002B43D0BCF1000F2F
:1048100040D0B8F1000F3DD0C6F380724272F50F60
:10482000C6F30A0227F0010606EB5706BE420572E0
:104830004281C7602CBF06614FF0FF304FF0000689
:10484000C4E90566C4E90013C4E9086638BF2061FD
:10485000A683C4F828C0A4F82CE055B1104B0096EC
:10486000CDE90143714640F2FF73604600F0D4FF8A
:104870000546637AC4F83080A4F8349063B1062208
:104880000023CDE9002349466289404600F0EBFF52
:10489000A06308B94FF0FF35284605B0BDE8F083A6
:1048A000AD47000838B5436893F90030052B04463E
:1048B00001D07F2B45D1A269656901F5FA714FF4EA
:1048C0007A73B1FBF3F313449A4238BFA361002318
:1048D00015B1C4E905330125637A9BB1E3688BB157
:1048E000A26993420ED80023A361A36B226CC3F884
:1048F0000520B4F84420A3F80920A16B206B00F038
:10490000CFFF0125237A83B1E36873B1A3692269DC
:1049100093420AD9626892F90020052A05D12068DD
:104920004FF401420921FDF763FBA38B3BB12068E3
:1049300048F260220A21FDF75BFB0023A38328468F
:1049400038BD00254561F0E730B5084D0144884287
:1049500001D1104630BD10F8014B130284EA122237
:104960009BB235F812205A40F1E700BF34F7000837
:104970000448054A4388002143F480635170438012
:1049800011707047A00B0020D40B0020054A5388FB
:1049900023F4806343F480535380034B01221A7045
:1049A000704700BFA00B0020D40B0020024B002258
:1049B0001A705A70704700BFD40B0020FFF7F6BF83
:1049C00008B5054B054800225A7001F093FCBDE87C
:1049D0000840034801F088BCD40B00208D49000832
:1049E0007149000810F4807F10B5154B044607D0BC
:1049F00002221A70134BD86901F0BEFD002010BDD1
:104A000010F0100212D093F9012001215970002AF0
:104A1000F4D10C4B80F04000A406D3E90412C0F39B
:104A200080109B6909D501F0D1FDE7E75A70054A6E
:104A3000538823F480535380E0E701F0F9FDDDE76C
:104A4000D40B0020A00B0020062909D8002939D05A
:104A50000239042909D8DFE801F00C12181E2400DD
:104A6000202924D0212928D0704720F04F0080B27F
:104A7000704720F04F0080B240F04000704720F0B7
:104A80004F0080B240F02100704720F04F0080B20C
:104A900040F02300704720F04F0080B240F0270024
:104AA000704720F06F0080B240F00700704720F0A0
:104AB0004F0080B240F00F00704720F04F0080B2EE
:104AC00040F00800704700F06F03212B0FD0232B1C
:104AD0000FD0272B0FD0072B0FD010F04F000ED088
:104AE00040280ED00F2814BF21202020704703201B
:104AF000704704207047052070470620704701204A
:104B000070470220704701F00F028907034607D45F
:104B1000032832D0052834D0042832D006282CD0DF
:104B2000062A4FF0210001D00E2A06D1022B2AD0EE
:104B3000043B012B98BF03207047072A06D19A1E19
:104B4000012A16D9052B08BF042070470F2A06D169
:104B5000032B0ED0043B022B98BF05207047023A6E
:104B6000012A12D8DA1E012A05D9052B08BF062012
:104B700070470420704702207047062AFBD00220AD
:104B8000D2E7062AFBD1032070477047062805D0DC
:104B900007280ED0012804D00020704701F0100033
:104BA0007047CB060BD411F0200F0CBF0020132050
:104BB000704711F0100F0CBF002011207047122019
:104BC0007047000008B5074B1A78032A04D0032267
:104BD0001A709B6903B19847BDE80840002001F0B6
:104BE00083BB00BFD80B0020024B00221A7020228A
:104BF0001A617047D80B002010B5034CC4E90102BC
:104C00002177E36010BD00BFD80B002010B5054C24
:104C1000E3600023C4E901022177A3610120FFF7CB
:104C2000E3FF10BDD80B002008B5044801F05CFB81
:104C3000034B1869BDE8084001F062BBC54B000892
:104C4000D80B002010B5014686B00620FFF79EFF66
:104C5000102802D0002006B010BD1B4C237873BB77
:104C60001A4808F047FB012319482370042104F077
:104C70005BFA184BDB78834212D1636802934FF4DE
:104C800081731548ADF80430002300681A4601A965
:104C900005F043FF2378032BDCD14FF4A050DAE773
:104CA000D4ED027AF8EEE77A40F20113CDED037A03
:104CB000D4ED037AF8EEE77ACDED047AE1E7042B40
:104CC000E8D14FF41050C6E7D80B002034F90008A3
:104CD000000C0240500C00205008002030B5042881
:104CE00087B027D1144C2378022B23D0134D2B6887
:104CF00003B3134801F0F8FA4FF48173ADF80430B0
:104D000063680293286800236A4601A9009305F0AE
:104D1000D4FF012804BF02232370009B012B09D17B
:104D20004FF0E0234FF08052C3F8042DBFF34F8FB4
:104D3000BFF36F8F07B030BDD80B002050080020A4
:104D4000C54B00084C4B1A682DE9F041074612B1DB
:104D50000020BDE8F081494E1E602021012007F0AF
:104D600079FC0C213060B0FA80F40A2007F072FC64
:104D7000434B6409186000B901341021092007F081
:104D800069FC404B186008B90134A4B24FF4EE61DD
:104D9000012007F05FFC706008B90134A4B20C2157
:104DA000442007F057FC384B186008B90134A4B20E
:104DB0007421012007F04EFCB06008B90134A4B2A0
:104DC0001C21012007F046FCF06008B90134A4B2B0
:104DD0003021012007F03EFC306108B90134A4B253
:104DE0004421012007F036FC706108B90134A4B2F7
:104DF0004821012007F02EFCB06108B90134A4B2AB
:104E0000DFF88C8004256C21012007F023FC48F892
:104E1000040B08B90134A4B2013DADB2002DF2D1AA
:104E2000DFF870805821012007F014FC48F8040BCB
:104E300008B90134A4B20135ABB2042B2DB2F1D1C3
:104E40002021012007F006FCF06308B90134A4B268
:104E50003421012007F0FEFB0C4B186008B9013427
:104E6000A4B217B141F278033B60002C3FF470AF5D
:104E70006FF001006DE700BFF80B0020FC0B002075
:104E80003C0C0020400C0020480C0020440C00206A
:104E9000180C0020280C00207FB50C4E33681B68CE
:104EA00000229A7404460D4600F0E6FB09230193A4
:104EB000074B029530681B68064A00931268006829
:104EC0000A23214600F0F8FB04B070BDF80B002067
:104ED000400C00203C0C00202DE9F04343B2002B95
:104EE0008BB0044602DC6FF00B00F5E07C4D2868C7
:104EF000036807220826CDE90832CDE9063647F2D5
:104F00003053CDE90443774B1B680393442302934A
:104F1000754B01930023009340684FF4905340F287
:104F2000815204F5C061FEF731FC002840F0D480C6
:104F30002868036803964FF001094FF00208CDE995
:104F40000639CDE90438694B029304F180020892D6
:104F5000A3F1080201920A22009242683833D0E994
:104F60000201FCF7C9FFA7B20346002840F0B48055
:104F700028680268009207F5E067CDE90532CDE9BF
:104F80000323CDE90133CDE907674FF4FA73D0E984
:104F900003102246FDF718FB002840F09D802F6883
:104FA000534E39683B69CDE90510CDE9031996F8F0
:104FB0005C200292F2680192B2680092D7E9012166
:104FC00078690C33FFF7FCFA0246002840F0848031
:104FD0002F6839683B6901920320CDE90418CDE9B7
:104FE0000210B26A0092D7E90121B8690C33FFF7C9
:104FF000F7FB002870D106F170080746A0368146FD
:10500000BBB21A1D296892B209920A68089203F588
:10501000B05292B2079203F5A0521B0203F500733F
:1050200092B29BB2CDE90562CDE90398CDE9014387
:105030000B6901EB87000C3300934B69C069D1E920
:105040000121FDF7CFFF002846D10137042F08F1D9
:105050000C0806F12406D3D1264F064607F1500866
:105060008146B3B2DA1C296892B209920A680892A2
:1050700003F5D05292B2079203F5C0521B0203F51A
:10508000C07392B29BB2CDE90582CDE90397CDE919
:1050900001430B6901EB86000C3300934B69C06A36
:1050A000D1E90121FDF7F8FFB0B90136042E07F16F
:1050B000140708F12408D4D128680923039303684E
:1050C0000293012301930C4B1B680093D0E901214B
:1050D0000A4BC06BFDF716F90BB0BDE8F08300BFBB
:1050E000F80B0020480C002060FA0008C4000020E3
:1050F000C8010020F8020020440C0020FC01002020
:105100002DE9FF41036993F90C507F2D04460F46AA
:10511000904630D06B1F5D425D41184E606843463B
:105120003A462946FEF736FDCDF80080338EE0681A
:105130003A462946FCF7D1FF06F15D030193104B77
:10514000CDF808801B790093D6F81032B6F84420C9
:1051500020693946FDF783FA39460646A069FFF70C
:10516000A1FBE06B43463A462946FDF753F930462A
:1051700004B0BDE8F0810125CFE700BFC8010020E1
:10518000B80000201346084A10B512690446406969
:10519000FFF79CFA012805D0022802D1206800F010
:1051A000B3FB002010BD00BFC801002070B50E4643
:1051B00000F11C0500F12C0455F8040B3146FEF7F4
:1051C000DBF8A542F8D170BD2DE9F8430E4617462D
:1051D000984600F12C0500F13C0455F8049B99F821
:1051E0001B3023B94846FDF7CBFF89F81B0055F863
:1051F000040C43463A463146FEF754F9A542ECD139
:10520000BDE8F88338B5084B0446002540881D707A
:105210000121FFF719FC4FF6FF736080258023867C
:10522000BDE83840FFF7E0BC4C0C002010B502216F
:1052300004464088FFF708FC608010BD10B50446A6
:10524000FFF7E0FF08488268C06893001121FFF76C
:10525000DDFCFFF7B3FB01F09FFE60880121FFF743
:10526000F3FB608010BD00BF500C002010B590F91A
:105270003030062B044606D1FFF7D6FC94F83030C8
:1052800084F8313010BD012BF8D10088FFF798FB6E
:10529000F4E710B5826804469300C0681121FFF757
:1052A000ABFC2046BDE8104000F0B2BF90F93130B1
:1052B000062B02D10088FFF7C5BC012B02D1008864
:1052C000FFF790BB704710B504464088FFF7BCFB62
:1052D000608010BD70B504464088FFF7F4FB21885C
:1052E0000646FFF710FC8642054603D001462046DD
:1052F000FFF7E9FF052D0DD194F9302094F93130F5
:105300009A4202D02046FFF7B1FF2046BDE8704028
:10531000FFF7CCBF70BD7047704770477047000003
:10532000014B01221A7070474D0C002008B5074848
:1053300007F0E0FF00F09EFF0548FFF763FF054B15
:105340001B681B697F221A7308BD00BF49F900085A
:10535000A00B0020F80B0020014807F0CBBF00BFD6
:1053600069F9000808B50248FFF7B4FF002008BD3E
:10537000A00B002008B5FFF7CFFF002008BD08B53F
:10538000FFF7C9FF002008BD08B5FFF7C6FF0020E2
:1053900008BD08B5FFF7C2FF002008BD052810B5FD
:1053A00004461CD015DCE0B10F4A104B042818BF8E
:1053B0001A460F48214607F017FF052C13D100F0BD
:1053C00059FF0C48FFF71EFFBDE810400948FFF7E2
:1053D0002DBF094A054B7F2818BF1A46E9E7074A3F
:1053E000E7E7074AE5E710BDA8F90008A0F90008BB
:1053F000B0F90008A00B002090F9000894F900080B
:1054000083F9000870B5044680B34369184A23F055
:105410007F4393422AD1436816481968164BC3F854
:105420005C1207F0E1FE6268144C131D264624321C
:1054300018685968254603C5083393422C46F7D1AE
:10544000736896ED067A0E4A0C48536107EE903A5F
:10545000F8EE677A67EE877AFCEEE77A17EE903A15
:10546000C2E906333223B383FFF713FF002070BD78
:1054700020C10400C7F90008C8010020500C00201A
:10548000A00B002013B501A8FFF75CFC044628B16F
:1054900002460349022000F05DFBE0B202B010BDFD
:1054A000E3F9000838B50D46FA21FFF7F5FC04468C
:1054B00030B153490246022000F04CFBE0B238BD47
:1054C0002846FFF709FD044610B14E490246F2E7AF
:1054D0004D4DFFF7B3FE2B684C491869FDF7B8F83E
:1054E0002B684B4A18692146FDF7AEF82868494BEE
:1054F000C06B22462146FCF781FF2868464BC06BF3
:1055000022462146FCF76EFF2B684CF220115868AA
:10551000FEF7DEF84FF6FF73984207D02B685B6802
:105520000C225043D3F81C373C4A1A502B6846F2E1
:1055300040015868FEF7CCF84FF6FF73984207D049
:105540002B685B680C225043D3F81C37344A1A503E
:105550002B6846F27A015868FEF7BAF84FF6FF73E7
:10556000984207D02B685B680C225043D3F81C3755
:105570002C4A1A502B6846F281015868FEF7A8F8A9
:105580004FF6FF73984207D02B685B680C2250439C
:10559000D3F81C37244A1A502B6846F28301586806
:1055A000FEF796F84FF6FF73984207D02B685B68BA
:1055B0000C225043D3F81C371C4A1A502B684CF26B
:1055C00001115868FEF784F84FF6FF73984207D030
:1055D0002B685B680C225043D3F81C37144A1A50CE
:1055E0002B68186800F049F82B681B689B7C2BB966
:1055F0000220104900F0AEFAEF2060E700205EE7DD
:10560000F7F9000817FA0008F80B00209D5300086E
:10561000215300082D530008595300080554000871
:105620006553000875530008895300089353000818
:105630007F53000835FA000873B50D4B0D4C1A78EE
:1056400006460D463AB1226800211970136993F994
:105650000C00FFF7A3FE20680121FFF7A7FD2068DB
:1056600001AB32462946FFF7AFFD02B070BD00BF67
:105670004D0C0020F80B0020704710B51321044694
:10568000006803F0ABF808B10023A374206802F0AF
:105690005FFF10B10023A37410BD0123FBE710B519
:1056A0000023044683741321006803F0A8F82068DF
:1056B000BDE8104002F07ABFF0B58BB00446109DF3
:1056C000BDF84470BDF84860002800F09E80002AB4
:1056D00000F09B80002D00F09880C0E900120021AE
:1056E00081740381C174C56007820175C4E9061124
:1056F000012060754FF6FF7EE18208461FFA81FCAB
:10570000634502F10C0246D82B4605EB0717002231
:105710009F4248D12046FFF7C2FF2068FBF738FCC4
:105720002068FBF7DFFB7D2E58D044D8322E4FF097
:1057300000034FF4102257D038D80A2E56D0142E1A
:1057400014BF0721AF21246831480025C4E9042390
:10575000304BA361C4E90001C4E90255A58320468A
:1057600002F0F2FD08B1FBF7DBFE0123CDE90733C0
:1057700069460E232046CDE90455CDE90055CDE913
:1057800002550695099302F05BFE10B1FBF7C8FEC7
:1057900000200BB0F0BD42E9020022F80C0C22F808
:1057A0000AEC0131AAE75A731033B1E7642E14BF33
:1057B00007212321C7E7B6F5FA7F1AD0B6F57A7F1D
:1057C0001DD0FA2E15BF00234FF480134FF4102282
:1057D0004FF4402214BF07210A21B4E74FF480138D
:1057E0004FF440221421AEE74621ACE74FF4AF71ED
:1057F000A9E74FF480134FF440220521A3E74FF4AB
:1058000080134FF4202203219DE74FF0FF30C0E7C3
:105810000064004000010101F0B5DDE906769DF865
:1058200014C0E8B1E7B1DEB104898C4218D94568EB
:105830000C2461436C189200C4E9017692B2BCF169
:10584000000F0AD16A5241F6FC7202EA830343F068
:1058500002036380C37C0020F0BD42F00202F1E746
:105860004FF0FF30F8E730B5A0B1048A8C4215D96B
:10587000C4680D0104EB011041F6FC7101EA8202DB
:105880004BB99DF80C3062510371002343739DF8AE
:105890001030837330BD42F00202F2E70020F9E7D6
:1058A00073B5C68AB6B204460D4606BB006802F060
:1058B000FBFEE0B1AB7B13492068DBB223752B689C
:1058C000C3F38A020A6003F002032A790A61CB60FB
:1058D0006A1D01ABC1E9016602F096FE28B120689D
:1058E00003F0A8F840B202B070BD6075FBE76A7BB8
:1058F0002AB901226A73E28A013292B2E28200205E
:10590000F1E700BF700C002030B4027D02F0FF030D
:1059100012B1002303750123C28A92B232B1C26868
:10592000018A002402EB01118A4207D193B130BCF5
:10593000C0694FF401421521FCF75ABB557B3DB1BC
:10594000957B2DB15473C38A013B9BB2C382022362
:105950001032E9E730BC704737B50446006802F002
:10596000A3FE50B300232375E38A9BB22BB3E568F3
:10597000238A05EB03139D4201D100231CE06A7BBF
:10598000EAB1AB7B0F492068DBB223752B68C3F308
:105990008A020A602A790A6103F002030022C1E93F
:1059A0000122CB606A1D01AB02F02EFE28B96075A2
:1059B0006873E38A013B9BB2E38203B030BD1035CC
:1059C000D9E700BF700C002003682DE9F0415C6A44
:1059D0008369A342064659D014F00407C56984615F
:1059E00012D0234648F2401212212846FCF700FB51
:1059F00014F4C06F1CD02346284648F21012BDE8AC
:105A0000F0411321FCF7F4BA224612212846FCF794
:105A10002AFBE20713D523463A4601212846FCF724
:105A2000E7FA002CE4D1224601212846FCF71BFBB3
:105A3000224628461321BDE8F041FCF714BBA3071A
:105A40000ED5234648F2201206212846FCF7D0FA4C
:105A5000737D002BE5D1234648F220120721DDE7B4
:105A6000062128462246FCF7FEFA07212846FCF7C5
:105A7000D6FB0028D5D0224628460721FCF7F3FAAA
:105A8000224614212846FCF7EEFACAE7BDE8F08169
:105A900010B58CB004460DF1250301AA006802F090
:105AA00017FE059B04998DF82430019B228941EA59
:105AB0008301E37C089143B12AB163681A8851409D
:105AC0005A8811420DD00CB010BD6368002AFAD07C
:105AD00018885C884840204203D0013A0C3392B2C7
